:100000007896FF1FD52D0000D92D0000D92D0000B6
:10001000D92D0000D92D0000D92D000000000000CE
:10002000000000000000000000000000A523000008
:10003000D92D000000000000692300008D2200007F
:10004000D92D0000D92D0000D92D0000D92D000098
:10005000D92D0000D92D0000D92D0000D92D000088
:10006000D92D0000D92D0000D92D0000D92D000078
:10007000D92D0000D92D0000D92D0000D92D000068
:10008000D92D0000D92D0000D92D0000D92D000058
:10009000D92D0000D92D0000D92D0000000000004E
:1000A000D92D0000D92D0000D92D0000D92D000038
:1000B000D92D0000D92D0000D92D0000D92D000028
:1000C000D92D0000D92D0000D92D0000000000001E
:1000D00000000000D92D0000D92D0000D92D00000E
:1000E000D92D0000D92D0000D92D000000000000FE
:1000F00000000000D92D0000D92D0000D92D0000EE
:10010000D92D0000D92D0000D92D0000D92D0000D7
:10011000D92D0000D92D0000D92D0000D92D0000C7
:10012000D92D0000D92D0000D92D0000D92D0000B7
:10013000D92D0000D92D0000D92D0000D92D0000A7
:10014000D92D0000D92D0000D92D0000000000009D
:10015000D92D0000D92D0000D92D0000D92D000087
:10016000D92D0000D92D0000D92D0000000000007D
:10017000000000000000000000000000D92D000079
:10018000D92D0000D92D0000D92D0000D92D000057
:10019000D92D0000D92D0000D92D0000D92D000047
:1001A000D92D0000D92D0000D92D0000D92D000037
:1001B000000000000000000000000000000000003F
:1001C000000000000000000000000000000000002F
:1001D000000000000000000000000000000000001F
:1001E000059C2D00006C2DCE00017C2DFA00292CE1
:1001F0002B00003C2B00004C2B00005C2B00006C03
:100200002B00007C2B00008C2B00009C2B0000ACF2
:100210002B0000BC2B00008C2DE60065CC2B0000D1
:10022000DC2B0000EC2B0000FC2B00000C2C000051
:100230001C2C00002C2C00003C2C00004C2C00003E
:100240005C2C00006C2C00007C2C00008C2C00002E
:100250009C2C0000AC2C0000BC2C0000CC2C00001E
:10026000DC2C0000EC2C0000FC2C00000C2D00000D
:100270001C2D00002C2D00003C2D00004C2D0000FA
:080280005C2D8100E900000182
:1004100000F5E0700268914203D343689A18914254
:1004200002D380680028F5D17047DFF858070168CB
:1004300091B94FF4803181604FF4805141604FF0A9
:10044000FF31C16001610421DFF83C274161C2F83E
:10045000BC11DFF8381701600120704701F1080373
:1004600013F0070305D001F10803C3F1080303F0FB
:1004700007035918D21A8161C26042F001034B6030
:10048000511828234B60DFF8FC160969C1617047D9
:100490002DE9F84F064601F1080010F0070008BFEB
:1004A000884607D001F10800C0F1080000F00700FD
:1004B00000EB010802F1080010F0070006D002F17D
:1004C0000800C0F1080000F0070082181546A5EBEF
:1004D0000800A0EB030903EB080B43F00300C8F886
:1004E0000400AB4528BF00F081FF2879C00758BF42
:1004F00000F07CFFB9F1100F38BF00F077FFB06952
:10050000854209D1F0684844F060C6F818B040F060
:100510000100CBF804006DE1706985420BD1B06831
:100520004844B060C6F814B040F00101CBF80410A4
:1005300040F80B005EE1686800F00301012940F01B
:10054000AD80C008C0000190C00820283AD2D5F87C
:1005500008A0EF680090BD4208BF00F047FF554576
:1005600008BF00F043FF68680099C008C000B0EB06
:10057000C10F18BF00F03AFF009806EBC00000F171
:1005800028018A4507D031698A45C0F08280DAF8AF
:100590000C10A9427DD1574506D1009A306801213F
:1005A00091408843306076E02830874205D030693A
:1005B00087426ED3B868A8426BD1CAF80C70C7F8EE
:1005C00008A068E0EF68D5F818A0AF420CD0A86882
:1005D0003169884223D3C168A94204BFB968A942DE
:1005E0001DD1C760B8601CE005F11400076837B979
:1005F00005F110000768A7B101E00846076807F198
:1006000014010A68002A02BF07F110010A68002AD3
:10061000F3D13169884202D30021016001E000F08A
:10062000E5FEBAF1000F36D0E86906EB800000F570
:10063000987001688D4208D10760A7B9EA697068AF
:10064000012191408843706025E03069824508D3DC
:10065000DAF81000A84214BFCAF81470CAF8107073
:1006600001E000F0C3FEB7B13069874211D3C7F88B
:1006700018A0296929B1814226BF39618F6100F034
:10068000B5FE686938B13169884202D37861876103
:1006900001E000F0ABFE019845198144686840080C
:1006A000400068604FEAD90549F00100CBF804002A
:1006B00049F80B90202D23D206EBC50000F1280746
:1006C000BA46B9F1100F38BF00F090FE306820FA3A
:1006D00005F1C90704D40121A9400843306006E0B0
:1006E000B868316988422CBF824600F07FFEC7F8A7
:1006F00008B0CAF80CB0CBF808A0CBF80C7079E0C1
:100700005FEA192108BF002023D0B1F5803F28BF40
:100710001F201ED2A1F58070000C00F0080081405F
:10072000A1F58052120C02F004029140A1F5804321
:100730001B0CC0F10E0003F00203801AC01A99408E
:1007400000EBD130C11D29FA01F202F0010101EBE9
:100750004000CBF81C000022CBF81420CBF810206E
:1007600006EB8001726822FA00F3DB0701F598714D
:1007700007D4012303FA00F010437060C1F800B001
:100780001DE009681F280EBF00204008C0F11900B5
:1007900009FA00F000E011464A68D208D2004A4542
:1007A00014D0C20F01EB820202F1100340001A685C
:1007B000002AF0D1306983421AD3C3F800B0CBF8D5
:1007C0001810CBF80CB0CBF808B013E03269886889
:1007D000914228BF90420BD3C0F80CB0C1F808B0CA
:1007E000CBF80800CBF80C100020CBF8180001E083
:1007F00000F0FCFD08F10800BDE8E68F2DE9FA4D98
:100800000546DFF8800384B0006808B9FFF70DFEE5
:10081000DFF870030499806841182F31401E21EAE7
:1008200000000499814280F0A88105F5D876B1686E
:1008300039B132688018824280F09F818142C0F0D5
:100840009C8100F0D7FD00281EBF0446D0F8008030
:1008500014F1010F00F091813068716840443060FC
:10086000814238BF01467160A86980BB286908B120
:10087000844200D22C610020F0613461C6F81480FB
:1008800005F12801BF48006868624FF0FF30286218
:10089000002001F10802C9601160801C103120287D
:1008A000D2609260F5D3B848854203D1A8F12802FE
:1008B000214629E055F8040CC00805EBC000A0F162
:1008C000080108EB0400401AA0F128021CE005F51D
:1008D000E071084600E08068D0B1026843689A1869
:1008E0009442F8D1027B120712D4AA6903689A4293
:1008F0000ED347683B449A420AD208EB0701416095
:10090000E868A96908EB00022846FFF7A7FD1EE189
:1009100028698442084638BF2C6108EB040100E0D6
:10092000806880B102688A42FAD1017B09070AD443
:1009300004604168414441602146049B284606B05A
:10094000BDE8F04DA4E5AF6939462846FFF760FDE4
:1009500001684068401802902F3800F1080111F03A
:10096000070105D000F10801C1F1080101F00701FC
:10097000081807F11001884234BF009700900098D2
:100980000830019004F10801009800F1180A11F0F4
:1009900007014FF0000BA8F1280005D004F1080171
:1009A000C1F1080101F007010A19401AAA61E860C3
:1009B00040F00101516080182821416071480069B0
:1009C000E861019810F0070018BF00F00FFD0099D2
:1009D0001B20486005F5E071B1E80C500198A0E8D3
:1009E0000C503461C6F81480C6F81CB00198B06190
:1009F000029800E08A460722CAF804200AF104019E
:100A00000A1D82420BF1010BF4D3BBF1020FB8BFF8
:100A100000F0ECFC0098B84200F09980C01BC119AE
:100A2000C4084A68520852004A6040F001017960E7
:100A3000C051202C20D205EBC40101F12806B0469C
:100A4000102838BF00F0D2FC286820FA04F1C9074A
:100A500004D40121A1400843286006E0B068296958
:100A600088422CBF804600F0C1FCB760C8F80C700B
:100A7000C7F80880FE606AE0010A08BF002223D0A0
:100A8000B1F5803F28BF1F221ED2A1F58072120C43
:100A900002F008029140A1F580531B0C03F00403FF
:100AA0009940A1F58044240CC2F10E0204F0020426
:100AB000D21A121BA14002EBD131CA1D20FA02F357
:100AC00003F0010202EB4102FA6100237B613B610A
:100AD00005EB82016B6823FA02F4E40701F59871D3
:100AE00005D401209040184368600F601CE009683D
:100AF0001F2A0EBF00225208C2F1190200FA02F2A8
:100B000000E019464B68DB08DB00834210D0D30FAE
:100B100001EB830303F1100452002368002BF0D192
:100B20002869844211D32760B961FF60BF600EE07D
:100B30002A698868914228BF904206D3C7608F60B7
:100B4000B860F9600020B86101E000F04FFCE8688F
:100B50000499814211D2401AE860A969049A521896
:100B6000AA6140F001005060049840F00300486022
:100B700006B001F10800BDE8F08D002006B0BDE828
:100B8000F08D00001886FF1F8481FF1F6859883C84
:100B90002DE9F04D0446002688465FEA1820C8F18A
:100BA000000B08BF002123D0B0F5803F28BF1F21D4
:100BB0001ED2A0F58071090C01F008018840A0F553
:100BC0008052120C02F004029040A0F580431B0CEE
:100BD000C1F10E0103F00203891AC91A984001EB12
:100BE000D030C11D28FA01F202F0010101EB4001F1
:100BF00004EB8100D0F8300118B31F290EBF00228A
:100C00004A08C2F1190208FA02F2002300E0520079
:100C10004568ED08ED00A5EB08055D4503D25FEAE8
:100C2000050B06460BD04569D70F00EB8700002D5A
:100C300000691CBF85422B460028E8D11846B8BB86
:100C4000C6BB01208840400041420843616808401B
:100C500000F0638141420840401E010B01F0100189
:100C6000C840420902F00802D040830803F00403A0
:100C7000D840450805F002055118E8405918C0F35E
:100C8000400729443944F840401804EB8000D0F86C
:100C900030010DE008464168C908C900A1EB080110
:100CA00059453CBF8B46064601690029F2D140698F
:100CB0000028F0D1002E00F03081A068A0EB0800E1
:100CC000834580F02A8120698642C0F024817068C3
:100CD000C008C00008EB0B0108EB0605884218BFEE
:100CE00000F084FBAE4280F01681F768D6F818A0B9
:100CF000B7420CD0B0682169884223D3C168B142A1
:100D000004BFB968B1421DD1C760B8601CE006F1EC
:100D10001400076837B906F110000768A7B101E0B1
:100D20000846076807F114010A68002A02BF07F1A4
:100D300010010A68002AF3D12169884202D30021F8
:100D4000016001E000F052FBBAF1000F38D0F06909
:100D500004EB800000F5987001688E4209D10760AD
:100D6000380014D1F26960680121914088436060C5
:100D700026E02069824508D3DAF81000B04214BF9B
:100D8000CAF81470CAF8107001E000F02FFBBFB170
:100D90002069874212D3C7F818A0306930B12169A1
:100DA000884226BF3861876100F020FB706938B146
:100DB0002169884202D37861876101E000F016FB67
:100DC000BBF1100F0CD208EB0B0040F00300706079
:100DD00008EB0B008019416841F00101416096E089
:100DE00048F0030070604BF0010068604FEADB00E0
:100DF0004BF805B020281DD204EBC00101F12807F3
:100E0000216821FA00F2D207BB4605D4012202FA7A
:100E100000F00843206006E0B868216988422CBFD2
:100E2000834600F0E3FABD60CBF80C50C5F808B07B
:100E3000EF606CE05FEA1B2108BF002023D0B1F512
:100E4000803F28BF1F201ED2A1F58070000C00F04B
:100E500008008140A1F58052120C02F0040291407A
:100E6000A1F580431B0CC0F10E0003F00203801AB1
:100E7000C01A994000EBD130C11D2BFA01F202F0EB
:100E8000010101EB4000E86100226A612A6104EB84
:100E90008001626822FA00F3DB0701F5987106D43D
:100EA000012303FA00F0104360600D601CE0096844
:100EB0001F280EBF00204008C0F119000BFA00F0F7
:100EC00000E011464A68D208D2005A4510D0C20F3D
:100ED00001EB820202F1100340001A68002AF0D1EF
:100EE0002069834211D31D60A961ED60AD600EE001
:100EF00022698868914228BF904206D3C5608D6000
:100F0000A860E9600020A86101E000F06FFA06F136
:100F10000800BDE8F08D00F069FA0020BDE8F08D12
:100F20002DE9F84F04468846606841420840401E5B
:100F3000010B01F01001C840420902F00802D04044
:100F4000830803F00403D840450805F00205511852
:100F5000E8405918C0F3400629447118F040401881
:100F600004EB8000D0F830014168C908C90006468A
:100F7000A1EB080A09E008464168C908C900A1EBCD
:100F8000080151453CBF8A46064601690029F2D155
:100F900040690028F0D120698642C0F0C4807068A2
:100FA000C00808EB0A09C00008EB060B484518BF4B
:100FB00000F01CFA5E4580F0B680F768B569B7426C
:100FC0000CD0B0682169884223D3C168B14204BF04
:100FD000B968B1421DD1C760B8601CE006F11400C9
:100FE000076837B906F110000768A7B101E00846A5
:100FF000076807F114010A68002A02BF07F110010F
:101000000A68002AF3D12169884202D300210160D5
:1010100001E000F0EBF9002D34D0F06904EB800022
:1010200000F5987001688E4209D10760380011D12F
:10103000F2696068012191408843606022E0206984
:10104000854205D32869B04214BF6F612F6101E06A
:1010500000F0CCF9B7B12069874211D3BD61306986
:1010600030B12169884226BF3861876100F0BEF93E
:10107000706938B12169884202D37861876101E0E3
:1010800000F0B4F9BAF1100F09D249F00300706012
:1010900009EB0600416841F0010141603FE048F082
:1010A000030070604AF00100CBF804004AF80BA07E
:1010B000D4F808804FEAD805202D28BF00F096F913
:1010C000B8F1000F27D0D4F81490009504EBC500B8
:1010D00000F128052F46B8F1100F38BF00F086F94F
:1010E0002068009920FA01F2D10705D4009A012165
:1010F00091400843206006E0A868216988422CBF1F
:10110000074600F073F9C5F80890C7F80C90C9F8C5
:101110000870C9F80C50C4F808A0C4F814B006F15F
:101120000800BDE8F28F00F061F90020BDE8F28F01
:101130002DE9F04F83B00546C046C046F52DDFF8D7
:10114000A84280F002810B2D31BF102705F10B0062
:10115000C708FF002068FE08F04010F0030F42D0DF
:10116000C04300F00100861904EBC60000F1280816
:10117000F700D8F808506868C008C000B84218BF27
:1011800000F034F9D5F80890454508BF00F02EF975
:101190004D4508BF00F02AF96868C008C000B84291
:1011A00018BF00F023F9C84505D120680121B140DE
:1011B000884320600DE02069814508D3D9F80C00F0
:1011C000A84204D1C8F80890C9F80C8001E000F0EA
:1011D0000DF947F00300686078190835416841F05F
:1011E00001014160F9E0A168B94280F0C0800028A7
:1011F00000F0A280012505FA06F149004A42B040FC
:101200001143084041420840401E010B01F010010B
:10121000C840420902F00802D040830803F00403EA
:10122000D840460806F002065118F0405918C0F39D
:1012300040087118414420FA08F000EB010804EB63
:10124000C80000F128094FEAC80AD9F80860706898
:10125000C008C000504518BF00F0C8F8D6F808B064
:101260004E4508BF00F0C2F85E4508BF00F0BEF86A
:101270007068C008C000504518BF00F0B7F8D945E5
:1012800005D1206805FA08F1884320600DE0206947
:10129000834508D3DBF80C00B04204D1C9F808B08C
:1012A000CBF80C9001E000F0A1F847F0030070606B
:1012B000AAEB0708B819019048F0010001994860AD
:1012C000019848F80080A7684FEAD70ABAF1200FC2
:1012D00028BF00F08BF847B3CDF800A004EBCA009C
:1012E000D4F8149000F1280AD346102F38BF00F02C
:1012F0007DF82068009920FA01F2D10705D4009901
:1013000005FA01F10843206007E0DAF808002169D6
:1013100088422CBF834600F069F8CAF80890CBF8E1
:101320000C90C9F808B0C9F80CA0C4F8088006F100
:1013300008050198606150E06068C0B339462046F6
:10134000FFF7EEFD050012D047E015F1400F28BF72
:101350004FF0FF370BD205F10B00C7086068FF00A4
:1013600028B139462046FFF713FC050035D1A068A7
:10137000B8421CD3C11B626910290AD3B818606136
:10138000A16041F001034360095047F00300506041
:101390000AE00021A160616140F003015160801802
:1013A000416841F00101416002F1080515E0E06883
:1013B00087420DD2C01BA169E0607A18A26140F09B
:1013C0000100506001F1080547F00300486004E0A7
:1013D00039462046FFF712FA0546C046C046284661
:1013E00003B0BDE8F08F00008481FF1F012000F0F2
:1013F00017B800000749086808B100207047064880
:10140000C008C00008600549C908C900091A016080
:10141000704700BF6C86FF1F7F96FF1F78B6FF1FC7
:1014200080B5C046C046024A11001820ABBEFBE79B
:1014300026000200DFF85403007850F00200DFF8C5
:101440004C130870DFF84803006850F4E050DFF8F0
:10145000401308600020DFF83C1308600020DFF82C
:10146000381308600020DFF8341308600020DFF82C
:10147000301308600020DFF82C1308600020DFF82C
:10148000281308600020DFF8241308600020DFF82C
:10149000201308600020DFF81C1308600020DFF82C
:1014A000181308600020DFF8141308600020DFF82C
:1014B000101308600020DFF80C1308600020DFF82C
:1014C000081308600020DFF8041308600020DFF82C
:1014D000001308600020DFF8FC1208600020DFF82D
:1014E000F81208600020DFF8F41208600020DFF82E
:1014F000F01208600020DFF8EC1208600020DFF82E
:10150000E81208600020DFF8E41208600020DFF82D
:10151000E01208600020DFF8DC1208600020DFF82D
:10152000D81208600020DFF8D41208600020DFF82D
:10153000D01208600020DFF8CC1208600020DFF82D
:10154000C81208600020DFF8C41208600020DFF82D
:10155000C01208600020DFF8BC1208600020DFF82D
:10156000B81208600020DFF8B41208600020DFF82D
:10157000B01208600020DFF8AC1208600020DFF82D
:10158000A81208600020DFF8A41208600020DFF82D
:10159000A01208600020DFF89C1208600020DFF82D
:1015A000981208600020DFF8941208600020DFF82D
:1015B000901208600020DFF88C1208600020DFF82D
:1015C000881208600020DFF884120860DFF88002CB
:1015D000006850F08040DFF8781208600020DFF8E3
:1015E0002C1308600020DFF86C1208604FF6FF70C3
:1015F000DFF8601208600020DFF85C1208607FF0FE
:101600000100DFF8541208600020DFF85012086073
:101610004FF47F40DFF8441208600020DFF84012EA
:101620000860DFF87802DFF878120860DFF87402EB
:10163000DFF8741208600020DFF8701208600020E4
:10164000DFF8A01208600020DFF89C12086000207C
:10165000DFF8981208600020DFF89412086000207C
:10166000DFF8901208600020DFF88C12086000207C
:10167000DFF8881208600020DFF88412086000207C
:10168000DFF880120860DFF884020068DFF8781263
:101690000843DFF878120860DFF87002006850F045
:1016A0008000DFF868120860704738B504000D004C
:1016B00000202078641CC0B2812801DB802000E07B
:1016C0002038DFF84C12C0B251F82010002908D0A1
:1016D000EDB2232D05DA2900C9B2C0B200F005F839
:1016E0002D1D20780028E4D131BD2DE9F041040002
:1016F0008846002700250020002600215FF0FF32E9
:10170000FFB2032F05DB00F035FA06000027B8F121
:1017100003084046C0B200F0D9F9DFF8F411E4B292
:1017200051F82410EDB2695CC9B200290BD1012235
:10173000DFF894335FFA88F818F803309B199A4061
:10174000D24310400AE0C9B2DFF87C235FFA88F880
:1017500018F80220921911FA02F21043C9B2DFF808
:1017600068235FFA88F818F802209219914008431C
:101770004146C9B200F058F96D1C7F1C18F10108F0
:10178000EDB20F2DBCDBBDE8F0810000004006404B
:101790003880044004A0044008A004400CA0044089
:1017A00010A0044014A0044018A004401CA0044051
:1017B00020A0044024A0044028A004402CA0044001
:1017C00040A0044044A0044048A004404CA0044071
:1017D00050A0044054A0044058A004405CA0044021
:1017E00000B0044004B0044008B004400CB0044011
:1017F00010B0044014B0044018B004401CB00440C1
:1018000020B0044024B0044028B004402CB0044070
:1018100030B0044034B0044038B004403CB0044020
:1018200040B0044044B0044048B004404CB00440D0
:1018300000C0044004C0044008C004400CC0044080
:1018400010C0044014C0044018C004401CC0044030
:101850003080044014E00B4010E00B401CE00B40D3
:1018600018E00B4038B504000D000020E4B2262C2F
:1018700013DA2000C0B200F029F9EDB2082D00DB28
:1018800000250121DFF88023E4B2A25C52199140C7
:1018900008432100C9B200F0C7F831BD01020408B5
:1018A00048E00B40102040804CE00B4020E00B4013
:1018B00038B504000D0000200021E4B2262C0FDA18
:1018C0002000C0B200F002F90121DFF83C23E4B2AD
:1018D000A25C5219914088432100C9B200F0A4F8DB
:1018E00031BD000024E00B4028E00B402CE00B4011
:1018F00030E00B4034E00B4038E00B403CE00B4064
:1019000040E00B4044E00B404710B38F00E00B4039
:101910000080FF1FC0B2012848D1DFF8E402006850
:10192000000A0002DFF8D8120860DFF8E002006861
:101930000020DFF8D8120860DFF8D4020068002029
:10194000DFF8CC120860DFF8CC0200680020DFF876
:10195000C4120860DFF8C00200680020DFF8B81287
:101960000860DFF8B80200680020DFF8B0120860F5
:10197000DFF8AC0200680020DFF8A4120860DFF88E
:10198000840200680020DFF87C120860DFF894020F
:1019900000680020DFF88C120860DFF88C02006815
:1019A000000A0002DFF8801208603BE0C0B20028A5
:1019B00038D1DFF84C02006810F47F40DFF84012A5
:1019C0000860DFF8480200680020DFF84012086075
:1019D000DFF83C02006800208D4908608D480068EF
:1019E00000208C4908608C48006800208A49086003
:1019F0008A480068002089490860894800680020FA
:101A0000874908607F48006800207E490860854853
:101A100000680020834908608348006810F07F4018
:101A20008149086070470000C9B28A1C121E042A4E
:101A300002D27349086046E0C9B28A1C121F042A08
:101A400002D2724908603EE0C9B28A1C083A042AF0
:101A500002D26F49086036E0C9B28A1C0C3A042AE7
:101A600002D26C4908602EE0C9B28A1C103A042ADE
:101A700002D26949086026E0C9B28A1C143A042AD5
:101A800002D2664908601EE0C9B28A1C183A042ACC
:101A900002D26349086016E0C9B28A1C1C3A042AC3
:101AA00002D2584908600EE0C9B28A1C203A042AC2
:101AB00002D25C49086006E0C9B2891C24390429B5
:101AC00001D2594908607047442A00000021C0B281
:101AD000811C091E042902D24948016848E0C0B2AD
:101AE000811C091F042902D24848016840E0C0B2A5
:101AF000811C0839042902D24548016838E0C0B287
:101B0000811C0C39042902D24248016830E0C0B27D
:101B1000811C1039042902D23F48016828E0C0B274
:101B2000811C1439042902D23C48016820E0C0B26B
:101B3000811C1839042902D23948016818E0C0B262
:101B4000811C1C39042902D22E48016810E0C0B261
:101B5000811C2039042902D23248016808E0C0B251
:101B6000801C2438042802D22F48016800E000219C
:101B70000800704700202D480078012806D1012078
:101B80002A490978491C294A117036E0274800780B
:101B9000022806D1022025490978491C234A1170E0
:101BA0002BE022480078032806D103201F4909783A
:101BB000491C1E4A117020E01C480078042804D1FA
:101BC00004200121194A117017E0184800780528EF
:101BD00006D1052015490978491C144A11700CE0FA
:101BE00012480078062804D1062001210F4A1170FE
:101BF00003E0002000210D4A1170C0B270470000C0
:101C000020E00B403CE00B40442A000024E00B4065
:101C100028E00B402CE00B4030E00B4034E00B4060
:101C200038E00B4040E00B4044E00B408081FF1F58
:101C300080B5FFF7FFFBAB48AB4908600020AB491C
:101C400008700FF24D10A94948600FF24910A749DA
:101C500088600FF29D10A549C8600FF21520A349B6
:101C600008610FF21D20A14948610020A0490860C9
:101C700064209F49887101209D49087100209C497A
:101C8000487100209A49C87101BD002100E0491C3B
:101C90000200501C1278002AF9D10800704780B564
:101CA00092489249097810EB8100406880474FF4D0
:101CB000FA7000F0E5F9F3E770B4002103E00022C8
:101CC0008C4BCA54491CB1F5967FF8D3894C00233C
:101CD00000E05B1C8649097A8B4215D286491A5C62
:101CE00011EB820151F8805C002209E0032606FB1B
:101CF0000126765D2670641C491C0529F6D3521C0A
:101D0000032AE6D20021F8E770BC70472DE9F041C4
:101D100004000D001600EDB2042D01D3012034E0C3
:101D2000F6B2202E01D302202FE0002C01D1032097
:101D30002BE0370000E07F1CFFB2222F24DAA846F8
:101D400007E04146C9B23800C0B2FFF7B1FD18F153
:101D500001085FFA88F8EDB2681D8045EBD2FFB24A
:101D6000F6B2B81B05215FFA88F8EDB2B8EB0502B0
:101D700001FB0020005D0028E3D04146C9B23800D5
:101D8000C0B2FFF76FFDE2E70020BDE8F081000080
:101D900070470000002004E05649415C514A8154DC
:101DA000401CB0F5967FF7D35148007A0F21484385
:101DB0004F4908604E48007902280ED14FF49670C2
:101DC00003E00021474A8154401CB0F5BB7FF8D99D
:101DD000474800684B304649086000204449C871B4
:101DE000404841490860022040490870704700009F
:101DF00030B5ABB03B483E49096808183A49096814
:101E0000441AAA2C14D2384801686D4622002800D2
:101E100000F078F9D4F1AA02364968462418200067
:101E200000F070F9012201216846FFF76FFF05E01D
:101E3000012201212C480068FFF768FF2A4800684A
:101E4000401D29490860284800682649401A284949
:101E50000968884209D32348234908602448C07987
:101E6000012802D10120214908702BB030BD0000AB
:101E700080B500211C480068FFF717FC01BD000079
:101E800080B50020FFF746FD01BD38B505000C0008
:101E90002800FFF7FAFE164908721548007A0B2849
:101EA00012D32800FFF708FF0220114908711048DB
:101EB0008079E4B2844203D201200C4908700AE020
:101EC00001200B49C87106E0012009490871002171
:101ED0002800FFF7EAFB0120054948710448847196
:101EE00031BD00005C83FF1F5C86FF1F0086FF1F63
:101EF0003086FF1FD484FF1F0080FF1F70B50021B4
:101F00007B4C25680026016803E0012622685268A0
:101F100022600A7F23681B681B7F9A4203D32268D2
:101F20005268002AF1D10100200000F026F9012EAC
:101F300000D1256070BD38B5040025680868406888
:101F4000002803D106E020684068206020684068CF
:101F50000028F8D1200000F010F96068032800D3B1
:101F6000256031BD0020624908600020604948605A
:101F700000206049086000205E49486000205E49FA
:101F8000086000205C4948607047F8B504000F0005
:101F90001D002020FFF7CCF80600002E2CD0F760A3
:101FA00006983077002070610020B0612800FFF7AC
:101FB000BFF830613069002806D0306910EB850029
:101FC0003060300000F069F9746001203072300038
:101FD00000F018F901004648FFF7ADFF47480068D8
:101FE000002804D0454800684068002804D14048D3
:101FF0000068006841490860F1BD80B5002000F02C
:102000001DF83E4909684969491C3C4A12685161FA
:102010003A490968496905290ED13849096849686A
:10202000002909D00020354909684861304800F08E
:10203000CCF8FFF763FF0020C0B202BDF8B5002066
:10204000002101202B4C25686668002703E02168E9
:10205000496821607F1CB7420FD2216809688A69EC
:10206000521E8A6189690029F1D1200000F0ADF883
:102070002568FFF743FF0020ECE72560C0B2F2BD02
:1020800038B5002400221D490968002929D01B49C0
:1020900009688861164800F098F80100154D04E0C1
:1020A0001448046828684068286028680268134853
:1020B000006880699269904203D2280000F05DF8C0
:1020C00006E0286840680028EAD1280000F070F88F
:1020D000002C00D02C600A48006850F0805008495D
:1020E000086031BD02480068006804490860704714
:1020F0003C86FF1F4486FF1F4C86FF1F6486FF1F20
:1021000004ED00E062B38B0708D0521E11F8013BCA
:1021100000F8013B00F024808B07F6D1830740F0E4
:10212000208000BF103A07D330B4B1E83810103A1D
:10213000A0E83810F9D230BC530724BFB1E808102A
:10214000A0E8081044BF51F8043B40F8043BD20714
:1021500024BF31F8022B20F8022B44BF0B78037008
:102160007047083A07D3B1E80810083A40F8043B32
:1021700040F804CBF7D25307E4E74268002A01D1C4
:10218000016011E002684A60026892688A60026831
:102190009268002A02D002689268516002689160D9
:1021A00001604968026851604168491C416070479C
:1021B0004268002A01D1016003E0026851600268B0
:1021C0008A604168491C416070474168002901D11B
:1021D000002115E001688A68002A02D04A688B68ED
:1021E0005A604A68002A02D08A684B689A604A6836
:1021F000026000228A6000224A604268521E4260E9
:102200000800704710B504000C20FEF791FF046031
:10221000002141600021816010BD000040B2002813
:1022200008D509012D4A40B210F00F00801800F8BF
:10223000041C03E009012A4A40B28154704780B56A
:10224000411EB1F1807F01D301200EE0401E2549DF
:1022500008600F215FF0FF30FFF7E0FF0020224908
:102260000860072021490860002002BD704780B542
:102270001F48FFF7E4FF0F215FF0FF30FFF7CEFFAD
:102280000F217FF00100FFF7C9FF01BD80B572B6D5
:1022900000F042F862B601BD70470168091F016095
:1022A0005FF08071026811600168091F0160C168F8
:1022B000026811600168091F01600E49026811601F
:1022C0000168143901600168091F01607FF0020193
:1022D00002681160016820390160704718ED00E064
:1022E00000E400E014E000E018E000E010E000E0AE
:1022F000007701009922000080B5FFF7B7FFFFF7D4
:1023000031FE642000904FF4007300220FF255015B
:102310000020FFF73AFE01BD80B5FFF76EFE0028F2
:1023200005D10E48006850F080500C49086001BD8E
:1023300010B582B00A4C08E0207C0090E368A268E7
:1023400061682068FFF721FE143460680028F3D12B
:10235000FFF78DFF00F034F813BD000004ED00E03E
:10236000B4290000FEE70000EFF30980BFF36F8F90
:102370001C4B1A6820E9F04F106008B44FF0280099
:1023800080F31188FFF7AEFE4FF0000080F3118854
:1023900008BC19680868B0E8F04F80F30988BFF3FB
:1023A0006F8F70470F4B19680868B0E8F04F80F3E3
:1023B0000988BFF36F8F4FF0000080F311887047DA
:1023C00009480068006880F3088862B6BFF34F8F41
:1023D000BFF36F8F00DFDFF81400016841F4700174
:1023E000016070476486FF1F08ED00E088ED00E0A3
:1023F000401E0028FCD170479848006850F40070D7
:10240000964908604FF4A07095490860704710B570
:102410009448006850F480609249086092480068CF
:1024200050F4806090490860002404E04FF49670F6
:10243000FFF7DEFF641CE4B2302CF7DB894800684C
:1024400030F48060874908604FF4E160FFF7D0FF07
:102450008648006810F4806085490860002404E024
:102460004FF49670FFF7C4FF641CE4B2302CF7DB26
:1024700010BD38B50400002528E07A48006850F403
:102480008060784908607848006850F48060764938
:1024900008604FF49670FFF7ABFFE00705D5714871
:1024A000006830F480606F49086040F2DC50FFF74C
:1024B0009FFF6C48006830F480606A4908604FF400
:1024C0009670FFF795FFE4B264086D1CEDB2082D1D
:1024D000D3DB4FF49670FFF78BFF31BD38B5002486
:1024E000002525E05F48006850F480605D49086081
:1024F0005D48006850F480605B4908605A20FFF72F
:1025000077FF5848006830F48060564908604FF4FF
:102510008770FFF76DFFE4B2640854480068400517
:1025200001D554F080044FF4E160FFF761FF6D1CAA
:10253000EDB2082DD6DB4FF49670FFF759FF20005F
:10254000C0B232BD10B584B0FFF761FF48480068E3
:10255000002802D05FF0FF3053E0CC20FFF789FF66
:102560004420FFF786FF03E04FF49670FFF740FF2B
:102570003C48006850F480603A4908603A48006876
:1025800050F48060384908605A20FFF731FF354821
:10259000006830F48060334908604FF48770FFF7BB
:1025A00027FF32480068002440F2DC50FFF720FF8C
:1025B000E4B2002CD8D0FFF72AFF2D48006800288D
:1025C00002D05FF0FF301CE0CC20FFF752FFBE20AE
:1025D000FFF74FFF002405E0FFF780FF6946E4B2F4
:1025E0006054641CE4B2082CF6DBFFF777FF8DF82B
:1025F00008009DF8010000029DF8001050FA81F0DB
:1026000000B204B010BD80B5FFF79CFF00B210F11E
:10261000010F02D15FF0FF3014E04FF47041084227
:1026200006D05FF0FF315FF0FF325040401C00E009
:10263000012140F2712210FB02F04143642091FB22
:10264000F0F000B202BD80B5FFF7DDFF0949088058
:102650004FF4FA70FFF714FDF6E7000038800440ED
:102660002890044014F00F4008F00F4010F00F4085
:102670006086FF1F7086FF1F1C206549C8700120FF
:10268000634988704FF4FC60614908800620604906
:10269000087117205F4908703B205E494870372059
:1026A0005C49887000205C490870704780B55B48C1
:1026B0000078401C594908705848007802280AD10F
:1026C00000F00EF800F034F805215548FFF7DDFB67
:1026D0000020524908704FF4FA70FFF7D1FCE6E78A
:1026E0004C488078401C4B4988704A4880783C2888
:1026F0001DD100204749887046484078401C454914
:102700004870444840783C2811D100204149487025
:1027100040480078401C3F4908703E48007818281F
:1027200005D100203B49087001203B4908707047E3
:102730000020374909880422B1FBF2F303FB12138E
:10274000002B08D1324909886422B1FBF2F302FB65
:10275000131100291BD12E4909880422B1FBF2F381
:1027600003FB1213002B13D1294909886422B1FB02
:10277000F2F302FB131100290AD1254909884FF40D
:10278000C872B1FBF2F302FB1311002900D1012042
:102790002149097801293AD100211F4A11701C49A9
:1027A0000979491C1A4A117119490979072902DB6B
:1027B0000021174A11711649C978491C144AD17071
:1027C0001849134A9278515C114AD27891421ED22C
:1027D0000F498978012906D1C0B2002803D00C48DE
:1027E000C0781E2807D301200949C870084880789E
:1027F000401C07498870064880780C2807DB0020B9
:102800000349887002480088401C014908807047CD
:102810005486FF1F6886FF1F7286FF1F7386FF1F87
:10282000182B0000BC2D0000816807E002681168C9
:10283000536889185B18C36008320260C26891420D
:10284000F4D04A1C8260087870472DE9FF4D00F1F2
:102850000801009100270268520801EBC2010191B2
:10286000B8460021029103910168490800EBC101BB
:10287000406800F0010501F10804400804EBC006BF
:1028800032E06846FFF7D0FF4FFA80FA0AE000987E
:102890000168081800990290496808180390009888
:1028A00008300090029803998842F0D010F801BBDC
:1028B000029047450CD1B44208BFFEF797FD276848
:1028C00005B14F44606800EB070808344745F2D073
:1028D000BAF1000F07F801BB0ED51AF1010AE8D1D1
:1028E000029803998842CCD1009801998842C8D1B6
:1028F000304604B0BDE8F08DBAF1010AD2D5EFE759
:102900000320224908701C20214908709020214989
:102910000870214800788007FBD51F480078C00662
:10292000FBD41D480078C0F38100C0B20228F8D162
:1029300000201A490870602019490870164800786C
:102940008006FBD5144800784006FBD5154816498B
:1029500008601048007810F03F000E4908700E48DB
:102960000078C0F38100C0B20328F8D10F48006896
:1029700040F4E00050F002000C4908600C48006888
:1029800050F480200A490860704700BF005006409C
:102990000140064000400640064006400440064014
:1029A0000540064000001301448004404880044074
:1029B00034800440010000009F1C00000000000063
:1029C000000200000A00000002000000AD26000026
:1029D00000000000000200000A00000003000000E8
:1029E0004726000000000000000200000A0000006E
:1029F00000000000000000000000000000000000D7
:102A00000000000019E050F8041BCB0744BFA9F1F7
:102A100001035918121F0023042A41F8043BF9D27C
:102A20005FEA827C0B4604D54FF0000CA1F800C091
:102A30009B1CD10744BF0021197050F8042B002AB9
:102A4000E1D170471018000810180008101800088D
:102A500010180008101800081018000810180008B6
:102A600010180008101800081000000080B5FFF7CB
:102A700047FFFFF7DDF8FFF7FFFDFFF7BDFCFFF7AE
:102A80003BFC05210248FFF700FAFFF751FCFEE787
:102A9000AC2D000010B5074979441831064C7C4430
:102AA000163404E00A68081D511888470146A142FF
:102AB000F8D110BD080000003000000049FFFFFF02
:102AC000F00400008481FF1F000000007FFDFFFF75
:102AD000020000000200000008D7FFFFA80000006D
:102AE0000080FF1F8101000000F00BF8002801D0DA
:102AF000FFF7D0FF0020C046C046FFF7B7FF00F049
:102B000002F80120704700F001B80000074638467F
:102B1000FEF786FCFBE700003938373635343332B0
:102B20003130313233343536373839000101010163
:102B3000000101000101000101010100000100018B
:102B4000010000010000010001010100010101007C
:102B5000000101010101000001010100010101006A
:102B6000000100010100000101010100010001015B
:102B7000000101010100000100000100010101014B
:102B8000000001010100000101010100010101013A
:102B9000000001010101000101010100010101002A
:102BA000000100000100000100000100010101011D
:102BB0000001010101010001010101000101010108
:102BC00000010101010000010000010000010001FD
:102BD00000010101010100010100010001010001EA
:102BE00000010101010100010101000001010101D9
:102BF00000000100000100000101010001010001CD
:102C000000010100010100010101000001010101B9
:102C100000000101010100000101010001010101A9
:102C2000000001010001000001000000000101019D
:102C3000000001010101000100010100010001018A
:102C4000000101010101000101000100000100007B
:102C5000010000010000010000010000000001006F
:102C6000000100000101000101010100010001015A
:102C7000010001000001010001000100010000014C
:102C8000000001000001000001010100010001013C
:102C90000101010001010001010001000100010129
:102CA000000101010101000101000100000100011A
:102CB000000101000101000100010000010101010A
:102CC00000010101010100000100000000010001FC
:102CD00000010100010100010001010001010001EA
:102CE00000010101000101000100010000010101DA
:102CF00000000101010000010101000001010100CB
:102D000001000001000001000001000001000101BC
:102D100000010100010100010101010001000101A8
:102D2000000101000101000100010000010001019A
:102D30000001010001010101010001000100010188
:102D4000000100010001000101000100010001017A
:102D5000000100010000010000010000010101006C
:102D6000000100010001000001010100000100005C
:102D70000100000100000000000100000000000050
:102D80000000000000000000000100000000000042
:102D90000100000000000100000000000000000031
:102DA0000000000000000000000000003132333459
:102DB0003536373839313233343536001F1C1F1E53
:102DC0001F1E1F1F1E1F1E1FC046C046C046C046F6
:0A2DD000FFF78AFEFFF7F8BFFEE7E9
:0400000500002DC901
:00000001FF
