:10000000A097FF1FA14B0000A54B0000A54B0000CF
:10001000A54B0000A54B0000A54B00000000000010
:10002000000000000000000000000000293900006E
:10003000A54B000000000000ED3800001138000062
:10004000A54B0000A54B0000A54B0000A54B0000F0
:10005000A54B0000A54B0000A54B0000A54B0000E0
:10006000A54B0000A54B0000A54B0000A54B0000D0
:10007000A54B0000A54B0000A54B0000A54B0000C0
:10008000A54B0000A54B0000A54B0000A54B0000B0
:10009000A54B0000A54B0000A54B00000000000090
:1000A000A54B0000A54B0000A54B0000A54B000090
:1000B000A54B0000A54B0000A54B0000A54B000080
:1000C000A54B0000A54B0000A54B00000000000060
:1000D00000000000A54B0000A54B0000A54B000050
:1000E000A54B0000A54B0000A54B00000000000040
:1000F00000000000A54B0000A54B0000A54B000030
:10010000A54B0000A54B0000A54B0000A54B00002F
:10011000A54B0000A54B0000A54B0000A54B00001F
:10012000A54B0000A54B0000A54B0000A54B00000F
:10013000A54B0000A54B0000A54B0000A54B0000FF
:10014000A54B0000A54B0000A54B000000000000DF
:10015000A54B0000A54B0000A54B0000A54B0000DF
:10016000A54B0000A54B0000A54B000000000000BF
:10017000000000000000000000000000A54B00008F
:10018000A54B0000A54B0000A54B0000A54B0000AF
:10019000A54B0000A54B0000A54B0000A54B00009F
:1001A000A54B0000A54B0000A54B0000A54B00008F
:1001B000000000000000000000000000000000003F
:1001C000000000000000000000000000000000002F
:1001D000000000000000000000000000000000001F
:1001E00005D84A0000A84ACE0001B84AFA0029689A
:1001F000480000784800008848000098480000A89F
:10020000480000B8480000C8480000D8480000E88E
:10021000480000F8480000C84AE6006508490000A8
:1002200018490000284900003849000048490000EA
:1002300058490000684900007849000088490000DA
:1002400098490000A8490000B8490000C8490000CA
:10025000D8490000E8490000F8490000084A0000B9
:10026000184A0000284A0000384A0000484A0000A6
:10027000584A0000684A0000784A0000884A000096
:10028000984A8100E900176C87FF1F7087FF1F7471
:1002900087FF1F7887FF1F7C87FF1F8087FF1FFD59
:0A02A000000301000001FD00000151
:1004100000F5E0700268914203D343689A18914254
:1004200002D380680028F5D17047DFF858070168CB
:1004300091B94FF4803181604FF4805141604FF0A9
:10044000FF31C16001610421DFF83C274161C2F83E
:10045000BC11DFF8381701600120704701F1080373
:1004600013F0070305D001F10803C3F1080303F0FB
:1004700007035918D21A8161C26042F001034B6030
:10048000511828234B60DFF8FC160969C1617047D9
:100490002DE9F84F064601F1080010F0070008BFEB
:1004A000884607D001F10800C0F1080000F00700FD
:1004B00000EB010802F1080010F0070006D002F17D
:1004C0000800C0F1080000F0070082181546A5EBEF
:1004D0000800A0EB030903EB080B43F00300C8F886
:1004E0000400AB4528BF00F081FF2879C00758BF42
:1004F00000F07CFFB9F1100F38BF00F077FFB06952
:10050000854209D1F0684844F060C6F818B040F060
:100510000100CBF804006DE1706985420BD1B06831
:100520004844B060C6F814B040F00101CBF80410A4
:1005300040F80B005EE1686800F00301012940F01B
:10054000AD80C008C0000190C00820283AD2D5F87C
:1005500008A0EF680090BD4208BF00F047FF554576
:1005600008BF00F043FF68680099C008C000B0EB06
:10057000C10F18BF00F03AFF009806EBC00000F171
:1005800028018A4507D031698A45C0F08280DAF8AF
:100590000C10A9427DD1574506D1009A306801213F
:1005A00091408843306076E02830874205D030693A
:1005B00087426ED3B868A8426BD1CAF80C70C7F8EE
:1005C00008A068E0EF68D5F818A0AF420CD0A86882
:1005D0003169884223D3C168A94204BFB968A942DE
:1005E0001DD1C760B8601CE005F11400076837B979
:1005F00005F110000768A7B101E00846076807F198
:1006000014010A68002A02BF07F110010A68002AD3
:10061000F3D13169884202D30021016001E000F08A
:10062000E5FEBAF1000F36D0E86906EB800000F570
:10063000987001688D4208D10760A7B9EA697068AF
:10064000012191408843706025E03069824508D3DC
:10065000DAF81000A84214BFCAF81470CAF8107073
:1006600001E000F0C3FEB7B13069874211D3C7F88B
:1006700018A0296929B1814226BF39618F6100F034
:10068000B5FE686938B13169884202D37861876103
:1006900001E000F0ABFE019845198144686840080C
:1006A000400068604FEAD90549F00100CBF804002A
:1006B00049F80B90202D23D206EBC50000F1280746
:1006C000BA46B9F1100F38BF00F090FE306820FA3A
:1006D00005F1C90704D40121A9400843306006E0B0
:1006E000B868316988422CBF824600F07FFEC7F8A7
:1006F00008B0CAF80CB0CBF808A0CBF80C7079E0C1
:100700005FEA192108BF002023D0B1F5803F28BF40
:100710001F201ED2A1F58070000C00F0080081405F
:10072000A1F58052120C02F004029140A1F5804321
:100730001B0CC0F10E0003F00203801AC01A99408E
:1007400000EBD130C11D29FA01F202F0010101EBE9
:100750004000CBF81C000022CBF81420CBF810206E
:1007600006EB8001726822FA00F3DB0701F598714D
:1007700007D4012303FA00F010437060C1F800B001
:100780001DE009681F280EBF00204008C0F11900B5
:1007900009FA00F000E011464A68D208D2004A4542
:1007A00014D0C20F01EB820202F1100340001A685C
:1007B000002AF0D1306983421AD3C3F800B0CBF8D5
:1007C0001810CBF80CB0CBF808B013E03269886889
:1007D000914228BF90420BD3C0F80CB0C1F808B0CA
:1007E000CBF80800CBF80C100020CBF8180001E083
:1007F00000F0FCFD08F10800BDE8E68F2DE9FA4D98
:100800000546DFF8800384B0006808B9FFF70DFEE5
:10081000DFF870030499806841182F31401E21EAE7
:1008200000000499814280F0A88105F5D876B1686E
:1008300039B132688018824280F09F818142C0F0D5
:100840009C8100F0D7FD00281EBF0446D0F8008030
:1008500014F1010F00F091813068716840443060FC
:10086000814238BF01467160A86980BB286908B120
:10087000844200D22C610020F0613461C6F81480FB
:1008800005F12801BF48006868624FF0FF30286218
:10089000002001F10802C9601160801C103120287D
:1008A000D2609260F5D3B848854203D1A8F12802FE
:1008B000214629E055F8040CC00805EBC000A0F162
:1008C000080108EB0400401AA0F128021CE005F51D
:1008D000E071084600E08068D0B1026843689A1869
:1008E0009442F8D1027B120712D4AA6903689A4293
:1008F0000ED347683B449A420AD208EB0701416095
:10090000E868A96908EB00022846FFF7A7FD1EE189
:1009100028698442084638BF2C6108EB040100E0D6
:10092000806880B102688A42FAD1017B09070AD443
:1009300004604168414441602146049B284606B05A
:10094000BDE8F04DA4E5AF6939462846FFF760FDE4
:1009500001684068401802902F3800F1080111F03A
:10096000070105D000F10801C1F1080101F00701FC
:10097000081807F11001884234BF009700900098D2
:100980000830019004F10801009800F1180A11F0F4
:1009900007014FF0000BA8F1280005D004F1080171
:1009A000C1F1080101F007010A19401AAA61E860C3
:1009B00040F00101516080182821416071480069B0
:1009C000E861019810F0070018BF00F00FFD0099D2
:1009D0001B20486005F5E071B1E80C500198A0E8D3
:1009E0000C503461C6F81480C6F81CB00198B06190
:1009F000029800E08A460722CAF804200AF104019E
:100A00000A1D82420BF1010BF4D3BBF1020FB8BFF8
:100A100000F0ECFC0098B84200F09980C01BC119AE
:100A2000C4084A68520852004A6040F001017960E7
:100A3000C051202C20D205EBC40101F12806B0469C
:100A4000102838BF00F0D2FC286820FA04F1C9074A
:100A500004D40121A1400843286006E0B068296958
:100A600088422CBF804600F0C1FCB760C8F80C700B
:100A7000C7F80880FE606AE0010A08BF002223D0A0
:100A8000B1F5803F28BF1F221ED2A1F58072120C43
:100A900002F008029140A1F580531B0C03F00403FF
:100AA0009940A1F58044240CC2F10E0204F0020426
:100AB000D21A121BA14002EBD131CA1D20FA02F357
:100AC00003F0010202EB4102FA6100237B613B610A
:100AD00005EB82016B6823FA02F4E40701F59871D3
:100AE00005D401209040184368600F601CE009683D
:100AF0001F2A0EBF00225208C2F1190200FA02F2A8
:100B000000E019464B68DB08DB00834210D0D30FAE
:100B100001EB830303F1100452002368002BF0D192
:100B20002869844211D32760B961FF60BF600EE07D
:100B30002A698868914228BF904206D3C7608F60B7
:100B4000B860F9600020B86101E000F04FFCE8688F
:100B50000499814211D2401AE860A969049A521896
:100B6000AA6140F001005060049840F00300486022
:100B700006B001F10800BDE8F08D002006B0BDE828
:100B8000F08D00006886FF1FA481FF1F6859883C14
:100B90002DE9F04D0446002688465FEA1820C8F18A
:100BA000000B08BF002123D0B0F5803F28BF1F21D4
:100BB0001ED2A0F58071090C01F008018840A0F553
:100BC0008052120C02F004029040A0F580431B0CEE
:100BD000C1F10E0103F00203891AC91A984001EB12
:100BE000D030C11D28FA01F202F0010101EB4001F1
:100BF00004EB8100D0F8300118B31F290EBF00228A
:100C00004A08C2F1190208FA02F2002300E0520079
:100C10004568ED08ED00A5EB08055D4503D25FEAE8
:100C2000050B06460BD04569D70F00EB8700002D5A
:100C300000691CBF85422B460028E8D11846B8BB86
:100C4000C6BB01208840400041420843616808401B
:100C500000F0638141420840401E010B01F0100189
:100C6000C840420902F00802D040830803F00403A0
:100C7000D840450805F002055118E8405918C0F35E
:100C8000400729443944F840401804EB8000D0F86C
:100C900030010DE008464168C908C900A1EB080110
:100CA00059453CBF8B46064601690029F2D140698F
:100CB0000028F0D1002E00F03081A068A0EB0800E1
:100CC000834580F02A8120698642C0F024817068C3
:100CD000C008C00008EB0B0108EB0605884218BFEE
:100CE00000F084FBAE4280F01681F768D6F818A0B9
:100CF000B7420CD0B0682169884223D3C168B142A1
:100D000004BFB968B1421DD1C760B8601CE006F1EC
:100D10001400076837B906F110000768A7B101E0B1
:100D20000846076807F114010A68002A02BF07F1A4
:100D300010010A68002AF3D12169884202D30021F8
:100D4000016001E000F052FBBAF1000F38D0F06909
:100D500004EB800000F5987001688E4209D10760AD
:100D6000380014D1F26960680121914088436060C5
:100D700026E02069824508D3DAF81000B04214BF9B
:100D8000CAF81470CAF8107001E000F02FFBBFB170
:100D90002069874212D3C7F818A0306930B12169A1
:100DA000884226BF3861876100F020FB706938B146
:100DB0002169884202D37861876101E000F016FB67
:100DC000BBF1100F0CD208EB0B0040F00300706079
:100DD00008EB0B008019416841F00101416096E089
:100DE00048F0030070604BF0010068604FEADB00E0
:100DF0004BF805B020281DD204EBC00101F12807F3
:100E0000216821FA00F2D207BB4605D4012202FA7A
:100E100000F00843206006E0B868216988422CBFD2
:100E2000834600F0E3FABD60CBF80C50C5F808B07B
:100E3000EF606CE05FEA1B2108BF002023D0B1F512
:100E4000803F28BF1F201ED2A1F58070000C00F04B
:100E500008008140A1F58052120C02F0040291407A
:100E6000A1F580431B0CC0F10E0003F00203801AB1
:100E7000C01A994000EBD130C11D2BFA01F202F0EB
:100E8000010101EB4000E86100226A612A6104EB84
:100E90008001626822FA00F3DB0701F5987106D43D
:100EA000012303FA00F0104360600D601CE0096844
:100EB0001F280EBF00204008C0F119000BFA00F0F7
:100EC00000E011464A68D208D2005A4510D0C20F3D
:100ED00001EB820202F1100340001A68002AF0D1EF
:100EE0002069834211D31D60A961ED60AD600EE001
:100EF00022698868914228BF904206D3C5608D6000
:100F0000A860E9600020A86101E000F06FFA06F136
:100F10000800BDE8F08D00F069FA0020BDE8F08D12
:100F20002DE9F84F04468846606841420840401E5B
:100F3000010B01F01001C840420902F00802D04044
:100F4000830803F00403D840450805F00205511852
:100F5000E8405918C0F3400629447118F040401881
:100F600004EB8000D0F830014168C908C90006468A
:100F7000A1EB080A09E008464168C908C900A1EBCD
:100F8000080151453CBF8A46064601690029F2D155
:100F900040690028F0D120698642C0F0C4807068A2
:100FA000C00808EB0A09C00008EB060B484518BF4B
:100FB00000F01CFA5E4580F0B680F768B569B7426C
:100FC0000CD0B0682169884223D3C168B14204BF04
:100FD000B968B1421DD1C760B8601CE006F11400C9
:100FE000076837B906F110000768A7B101E00846A5
:100FF000076807F114010A68002A02BF07F110010F
:101000000A68002AF3D12169884202D300210160D5
:1010100001E000F0EBF9002D34D0F06904EB800022
:1010200000F5987001688E4209D10760380011D12F
:10103000F2696068012191408843606022E0206984
:10104000854205D32869B04214BF6F612F6101E06A
:1010500000F0CCF9B7B12069874211D3BD61306986
:1010600030B12169884226BF3861876100F0BEF93E
:10107000706938B12169884202D37861876101E0E3
:1010800000F0B4F9BAF1100F09D249F00300706012
:1010900009EB0600416841F0010141603FE048F082
:1010A000030070604AF00100CBF804004AF80BA07E
:1010B000D4F808804FEAD805202D28BF00F096F913
:1010C000B8F1000F27D0D4F81490009504EBC500B8
:1010D00000F128052F46B8F1100F38BF00F086F94F
:1010E0002068009920FA01F2D10705D4009A012165
:1010F00091400843206006E0A868216988422CBF1F
:10110000074600F073F9C5F80890C7F80C90C9F8C5
:101110000870C9F80C50C4F808A0C4F814B006F15F
:101120000800BDE8F28F00F061F90020BDE8F28F01
:101130002DE9F04F83B00546C046C046F52DDFF8D7
:10114000A84280F002810B2D31BF102705F10B0062
:10115000C708FF002068FE08F04010F0030F42D0DF
:10116000C04300F00100861904EBC60000F1280816
:10117000F700D8F808506868C008C000B84218BF27
:1011800000F034F9D5F80890454508BF00F02EF975
:101190004D4508BF00F02AF96868C008C000B84291
:1011A00018BF00F023F9C84505D120680121B140DE
:1011B000884320600DE02069814508D3D9F80C00F0
:1011C000A84204D1C8F80890C9F80C8001E000F0EA
:1011D0000DF947F00300686078190835416841F05F
:1011E00001014160F9E0A168B94280F0C0800028A7
:1011F00000F0A280012505FA06F149004A42B040FC
:101200001143084041420840401E010B01F010010B
:10121000C840420902F00802D040830803F00403EA
:10122000D840460806F002065118F0405918C0F39D
:1012300040087118414420FA08F000EB010804EB63
:10124000C80000F128094FEAC80AD9F80860706898
:10125000C008C000504518BF00F0C8F8D6F808B064
:101260004E4508BF00F0C2F85E4508BF00F0BEF86A
:101270007068C008C000504518BF00F0B7F8D945E5
:1012800005D1206805FA08F1884320600DE0206947
:10129000834508D3DBF80C00B04204D1C9F808B08C
:1012A000CBF80C9001E000F0A1F847F0030070606B
:1012B000AAEB0708B819019048F0010001994860AD
:1012C000019848F80080A7684FEAD70ABAF1200FC2
:1012D00028BF00F08BF847B3CDF800A004EBCA009C
:1012E000D4F8149000F1280AD346102F38BF00F02C
:1012F0007DF82068009920FA01F2D10705D4009901
:1013000005FA01F10843206007E0DAF808002169D6
:1013100088422CBF834600F069F8CAF80890CBF8E1
:101320000C90C9F808B0C9F80CA0C4F8088006F100
:1013300008050198606150E06068C0B339462046F6
:10134000FFF7EEFD050012D047E015F1400F28BF72
:101350004FF0FF370BD205F10B00C7086068FF00A4
:1013600028B139462046FFF713FC050035D1A068A7
:10137000B8421CD3C11B626910290AD3B818606136
:10138000A16041F001034360095047F00300506041
:101390000AE00021A160616140F003015160801802
:1013A000416841F00101416002F1080515E0E06883
:1013B00087420DD2C01BA169E0607A18A26140F09B
:1013C0000100506001F1080547F00300486004E0A7
:1013D00039462046FFF712FA0546C046C046284661
:1013E00003B0BDE8F08F0000A481FF1F012000F0D2
:1013F00017B810060749086808B10020704706486A
:10140000C008C00008600549C908C900091A016080
:10141000704700BF8887FF1FA797FF1FA0B7FF1F58
:1014200080B5C046C046024A11001820ABBEFBE79B
:1014300026000200DFF8241800224254DFF82018AA
:101440004254DFF880184254704710B50446FFF745
:10145000F1FFDFF8100800212154DFF80C08042107
:10146000215410BD2DE9F84F04460425A1464A46F3
:10147000A246DFF8F887DFF8F0B70126DFF84878F2
:10148000D008C05D02F0070106FA01F1084204D05D
:1014900012F80B00042818BF02250421104658F842
:1014A0002220904702465245EAD1042D16D103214D
:1014B000204658F82A2090470446022C0FD14A466D
:1014C000DFF80858002025F812000421104658F8CB
:1014D0002220904702465245F4D100E001242046E4
:1014E000BDE8F28F10B50024DFF8E40700680100C2
:1014F00018BF8047DFF8DC070168080002D0012030
:1015000088470446DFF8D00700210170817020462B
:1015100010BD2DE9F04F83B001240025AA46AB464B
:10152000A846A9460126DFF8B007C07801282CD1CB
:10153000DFF8A4074570DFF8A407407880060ED5D1
:10154000DFF89407007828B9DFF890074079DFF8D2
:1015500088170870DFF880070078401E02E0DFF887
:101560007C074079DFF870170870DFF8740700789F
:10157000C007DFF8700706D5007860B1401EDFF8BD
:101580006417087007E0057005E0002000F04FFBCD
:10159000DFF844174870DFF850070778B8455CD289
:1015A0004146DFF84807085C421E92450DD1DFF83E
:1015B00028275278824208D0DFF834374FF0FF0CEA
:1015C00002F803C0D218FF235370824545D1DFF8DB
:1015D0000807C278012A17D180F801A0DFF80407B4
:1015E000085C88B95FFA89F9DFF8F40619F8000099
:1015F000304209D0DFF8FC0650F82100407800F0B6
:101600001F00DFF8E036C85408F10101080746BFA3
:10161000012609F1010976005FFA81F8B8451CD26C
:10162000012A14D141465FFA89F9DFF8B40619F8A6
:1016300000003042DFF8AC0606D0085C68B1DFF885
:10164000A426401E885408E000220A5405E04046C3
:1016500000F0EDFADFF880164870DFF86C06285CC1
:10166000204200F08380DFF89006285C20427DD184
:101670005FFA89F9DFF8840619F80000304204D0D7
:10168000DFF8600618F8000078B1B8450DD2DFF831
:101690004C064078DFF84016097819B9292108422C
:1016A00003D163E00921084260D0DFF8C00550F89B
:1016B0002A000090002859D0DFF81C06C178504657
:1016C000009A90470746012F08BF4BF0010B4DD001
:1016D000DFF82406285C2043DFF81C166854032F2B
:1016E00006D0042F04D0DFF8F4054078000705D5B4
:1016F0005046FFF7B7FE0746012F00D04FB90195BE
:10170000E4B200945346F2B24946404600F025FA4E
:101710002CE0062F01D0072F17D1DFF8AC05285C8D
:10172000A043DFF8A415685405215046009A90475D
:101730005046FFF797FECDF804A0F6B200964B4650
:101740004246E1B2284600F093FA5846062F09D0E7
:10175000052F04D0072F07D140F0040004E040F02B
:10176000080001E040F0020040EA0B0B0AF1010121
:10177000DFF88C0500785FFA81FA82450BD20721E9
:101780001AEA010F03BF01246D1CEDB26400BAF127
:10179000000F7FF400AF5FEACB7048BF02200DD48A
:1017A0000020DFF85415002201F8012B401CDFF85F
:1017B00054251278C0B29042F5D30120DFF81815F5
:1017C000C8705FFA8BF0FFE703B0BDE8F08FDFF879
:1017D0003815415C4908DFF8342581547047DFF83B
:1017E00030250129B8BF0021815470472DE9F14F00
:1017F00082B08A460546DFF870042E5CDFF85C0490
:101800002F5CDFF85C0415F80080DFF8B80415F8E9
:101810000090DFF8F804285C0090DFF8EC04285C06
:1018200000994FEA610B0EB1042E0BD140B28245F4
:1018300006DB01260127B0464FF00009052483E0AE
:10184000032481E0012E38D17F1C062440B282455A
:10185000A4BF08F101084FF0000911DA09F10100F5
:101860005FFA80F9B9F1020F0AD14FFA8BF05045B7
:10187000ACBF042600269DF80800FFF7DBFD03241B
:10188000DFF858048079FFB287425DD37808B90841
:1018900051FA80F05FFA88F84045BCBF0226022466
:1018A00006DB4FFA8BF05045ACBF0426002603241C
:1018B0009DF80800FFF7BEFD46E0022E0BD148B2AE
:1018C000504506DB03260127B9464FF000080724E0
:1018D0003AE0012438E0032E2FD17F1C082448B2BF
:1018E0005045A4BF09F101094FF000080CDA08F1D6
:1018F00001005FFA80F8B8F1020F05D102269DF8C9
:101900000800FFF797FD0124DFF8D0038079FFB2CC
:10191000874219D37808B90851FA80F05FFA89F93B
:10192000484507DA4FFA8BF05045ACBF0426002635
:101930000424BDE702260124BAE74FFA8BF0504594
:10194000ACBF042600260424DFF890034178C906C2
:1019500027D5012C25D1DFF8BC136A5C521C6A54D0
:10196000C079D2B282421CD1E810C0B2DFF8A8130D
:10197000425C01239DF808C00CF0070C03FA0CF33D
:101980009A434254DFF8440330F81510BAF1000FBF
:1019900051BF51FA8AF1CAF10002D2B2891A20F875
:1019A0001510B1482E54AD482F54AD4805F80080AD
:1019B000C44805F80090DFF85403009929542046E4
:1019C00002E72DE9F041044600294CBF4842084691
:1019D0002546A24EAA5D521CAA55DFF8F08238F8BF
:1019E0001570C0B2DFF82023AA5C904229DA0129E1
:1019F000A8BF7F1C02DA002948BF7F1E9848295CD7
:101A0000491C29549648285C022804BF2046FFF749
:101A10001CFDA85DB1498979B0EB510F20D3410875
:101A2000800850FA81F0A749695C884215DA8D4830
:101A30002856002851BF47FA80F74042C0B23F1AEB
:101A40000BE00029DED5874829549E48295C491CB3
:101A50002954834800212954DBE72046FFF7F5FC91
:101A600028F81570BDE8F081F0B583B00446089EF3
:101A7000099D0A98012C1AD1A74C075D3D430555D5
:101A800099480078814241D2A448105C18423DD068
:101A900091484278964C31B1944D491911F8011C86
:101AA000711A115500E01655511C41702EE0022CA0
:101AB00021D1994C075D3D4305558B480078814203
:101AC00015D28748145C9C4314549548145C2343F6
:101AD000135481484278864C31B1844D491911F82C
:101AE000011C711A115500E01655511C41708948AE
:101AF000002131540AE0032C01D0042C06D10196B8
:101B0000009313460A46294600F0B2F803B0F0BD30
:101B10006E4931F81000704909890A1A12B2802AF8
:101B2000A8BF7F2005DA6FF07F039A42B4BF184642
:101B3000081A40B270477B49674A128921F8102081
:101B4000704738B50446644D2146288900F0F4F802
:101B50002881744921F8140031BD2DE9F04F83B07C
:101B600080468B4617461D460C9E0D9CA94657483D
:101B700030F81910A9B95849098920F819106A488C
:101B8000016808001CBF284688472846FFF75DFC0F
:101B9000019500975B4642463146204600F068F8C2
:101BA00044E06248016808001CBF28468847284670
:101BB000FFF7AEFF82465E480268100002D0514631
:101BC000284690475B48016808001CBF28468847A4
:101BD0004A481BF80000384203D0424818F8000079
:101BE00018B14148007880450BD351462846FFF78D
:101BF000FDFD0294019600953B465A464146FFF78B
:101C000033FF364840783449097819B92121084210
:101C100002D10BE0C00709D5134819F8000008B13C
:101C2000042803D151462846FFF7CBFECCE501003E
:101C30002E4A0EBF0020881810F8010C895C091A82
:101C4000C9B2022908D32A49425CFF2A04D0401CA9
:101C5000C0B2425CFF2AFAD1704700001087FF1F14
:101C60001887FF1F0087FF1F3087FF1F38480000BD
:101C7000F0B4049D059C284FC65D0E421FD026EA95
:101C80000101C15518480078824218D22448195CD5
:101C9000294319542148185C284210D10E48417834
:101CA000134D3AB1114E921912F8012CA21A42F0BA
:101CB000800201E044F080024A55491C4170F0BCAA
:101CC000704700002087FF1F9087FF1FB886FF1F07
:101CD0009C4B0000944B00009881FF1F9086FF1FD3
:101CE0009587FF1F9487FF1F8E300000F3130000BD
:101CF0003887FF1F644B00009287FF1F9787FF1FE5
:101D0000372B00008F300000F886FF1F0887FF1F69
:101D10004087FF1F2887FF1F9187FF1F362B00007A
:101D20009687FF1FC486FF1F784B0000744B00008E
:101D30007C4B0000804B0000054AC9B232F81110FC
:101D40000322514311FA80F0800880B2704700BF2F
:101D5000C486FF1FDFF85403007850F00200DFF85C
:101D60004C130870DFF84803006850F4E050DFF8C7
:101D7000401308600020DFF83C1308600020DFF803
:101D8000381308600020DFF8341308600020DFF803
:101D9000301308600020DFF82C1308600020DFF803
:101DA000281308600020DFF8241308600020DFF803
:101DB000201308600020DFF81C1308600020DFF803
:101DC000181308600020DFF8141308600020DFF803
:101DD000101308600020DFF80C1308600020DFF803
:101DE000081308600020DFF8041308600020DFF803
:101DF000001308600020DFF8FC1208600020DFF804
:101E0000F81208600020DFF8F41208600020DFF804
:101E1000F01208600020DFF8EC1208600020DFF804
:101E2000E81208600020DFF8E41208600020DFF804
:101E3000E01208600020DFF8DC1208600020DFF804
:101E4000D81208600020DFF8D41208600020DFF804
:101E5000D01208600020DFF8CC1208600020DFF804
:101E6000C81208600020DFF8C41208600020DFF804
:101E7000C01208600020DFF8BC1208600020DFF804
:101E8000B81208600020DFF8B41208600020DFF804
:101E9000B01208600020DFF8AC1208600020DFF804
:101EA000A81208600020DFF8A41208600020DFF804
:101EB000A01208600020DFF89C1208600020DFF804
:101EC000981208600020DFF8941208600020DFF804
:101ED000901208600020DFF88C1208600020DFF804
:101EE000881208600020DFF884120860DFF88002A2
:101EF000006850F08040DFF8781208600020DFF8BA
:101F00002C1308600020DFF86C1208604FF6FF7099
:101F1000DFF8601208600020DFF85C1208607FF0D4
:101F20000100DFF8541208600020DFF8501208604A
:101F30004FF47F40DFF8441208600020DFF84012C1
:101F40000860DFF87802DFF878120860DFF87402C2
:101F5000DFF8741208600020DFF8701208600020BB
:101F6000DFF8A01208600020DFF89C120860002053
:101F7000DFF8981208600020DFF894120860002053
:101F8000DFF8901208600020DFF88C120860002053
:101F9000DFF8881208600020DFF884120860002053
:101FA000DFF880120860DFF884020068DFF878123A
:101FB0000843DFF878120860DFF87002006850F01C
:101FC0008000DFF868120860704738B504000D0023
:101FD00000202078641CC0B2812801DB802000E052
:101FE0002038DFF84C12C0B251F82010002908D078
:101FF000EDB2232D05DA2900C9B2C0B200F005F810
:102000002D1D20780028E4D131BD2DE9F0410400D8
:102010008846002700250020002600215FF0FF32BF
:10202000FFB2032F05DB00F035FA06000027B8F1F8
:1020300003084046C0B200F0D9F9DFF8F411E4B269
:1020400051F82410EDB2695CC9B200290BD101220C
:10205000DFF894335FFA88F818F803309B199A4038
:10206000D24310400AE0C9B2DFF87C235FFA88F857
:1020700018F80220921911FA02F21043C9B2DFF8DF
:1020800068235FFA88F818F80220921991400843F3
:102090004146C9B200F058F96D1C7F1C18F10108C7
:1020A000EDB20F2DBCDBBDE8F08100000040064022
:1020B0003880044004A0044008A004400CA0044060
:1020C00010A0044014A0044018A004401CA0044028
:1020D00020A0044024A0044028A004402CA00440D8
:1020E00040A0044044A0044048A004404CA0044048
:1020F00050A0044054A0044058A004405CA00440F8
:1021000000B0044004B0044008B004400CB00440E7
:1021100010B0044014B0044018B004401CB0044097
:1021200020B0044024B0044028B004402CB0044047
:1021300030B0044034B0044038B004403CB00440F7
:1021400040B0044044B0044048B004404CB00440A7
:1021500000C0044004C0044008C004400CC0044057
:1021600010C0044014C0044018C004401CC0044007
:102170003080044014E00B4010E00B401CE00B40AA
:1021800018E00B4038B504000D000020E4B2262C06
:1021900013DA2000C0B200F029F9EDB2082D00DBFF
:1021A00000250121DFF88023E4B2A25C521991409E
:1021B00008432100C9B200F0C7F831BD010204088C
:1021C00048E00B40102040804CE00B4020E00B40EA
:1021D00038B504000D0000200021E4B2262C0FDAEF
:1021E0002000C0B200F002F90121DFF83C23E4B284
:1021F000A25C5219914088432100C9B200F0A4F8B2
:1022000031BD000024E00B4028E00B402CE00B40E7
:1022100030E00B4034E00B4038E00B403CE00B403A
:1022200040E00B4044E00B404710B38F00E00B4010
:102230000080FF1FC0B2012848D1DFF8E402006827
:10224000000A0002DFF8D8120860DFF8E002006838
:102250000020DFF8D8120860DFF8D4020068002000
:10226000DFF8CC120860DFF8CC0200680020DFF84D
:10227000C4120860DFF8C00200680020DFF8B8125E
:102280000860DFF8B80200680020DFF8B0120860CC
:10229000DFF8AC0200680020DFF8A4120860DFF865
:1022A000840200680020DFF87C120860DFF89402E6
:1022B00000680020DFF88C120860DFF88C020068EC
:1022C000000A0002DFF8801208603BE0C0B200287C
:1022D00038D1DFF84C02006810F47F40DFF840127C
:1022E0000860DFF8480200680020DFF8401208604C
:1022F000DFF83C02006800208D4908608D480068C6
:1023000000208C4908608C48006800208A490860D9
:102310008A480068002089490860894800680020D0
:10232000874908607F48006800207E49086085482A
:1023300000680020834908608348006810F07F40EF
:102340008149086070470000C9B28A1C121E042A25
:1023500002D27349086046E0C9B28A1C121F042ADF
:1023600002D2724908603EE0C9B28A1C083A042AC7
:1023700002D26F49086036E0C9B28A1C0C3A042ABE
:1023800002D26C4908602EE0C9B28A1C103A042AB5
:1023900002D26949086026E0C9B28A1C143A042AAC
:1023A00002D2664908601EE0C9B28A1C183A042AA3
:1023B00002D26349086016E0C9B28A1C1C3A042A9A
:1023C00002D2584908600EE0C9B28A1C203A042A99
:1023D00002D25C49086006E0C9B2891C243904298C
:1023E00001D2594908607047684700000021C0B217
:1023F000811C091E042902D24948016848E0C0B284
:10240000811C091F042902D24848016840E0C0B27B
:10241000811C0839042902D24548016838E0C0B25D
:10242000811C0C39042902D24248016830E0C0B254
:10243000811C1039042902D23F48016828E0C0B24B
:10244000811C1439042902D23C48016820E0C0B242
:10245000811C1839042902D23948016818E0C0B239
:10246000811C1C39042902D22E48016810E0C0B238
:10247000811C2039042902D23248016808E0C0B228
:10248000801C2438042802D22F48016800E0002173
:102490000800704700202D480078012806D101204F
:1024A0002A490978491C294A117036E027480078E2
:1024B000022806D1022025490978491C234A1170B7
:1024C0002BE022480078032806D103201F49097811
:1024D000491C1E4A117020E01C480078042804D1D1
:1024E00004200121194A117017E0184800780528C6
:1024F00006D1052015490978491C144A11700CE0D1
:1025000012480078062804D1062001210F4A1170D4
:1025100003E0002000210D4A1170C0B27047000096
:1025200020E00B403CE00B406847000024E00B40FB
:1025300028E00B402CE00B4030E00B4034E00B4037
:1025400038E00B4040E00B4044E00B40A281FF1F0D
:1025500010B4030012B212F1030F01D17E2072E019
:10256000DFF86402006850F40070DFF85C4220601D
:1025700040F201101860DFF85C0200688843DFF861
:102580005442206012B212F1020F01D17E205AE0B3
:10259000DFF838020068084202D17FF0010052E003
:1025A000DFF82C020160DFF82C0200680843DFF836
:1025B0002442206000BF00BF00BF00BF00BFDFF8A3
:1025C0000C020068084202D07FF002003BE0DFF816
:1025D000040200688843DFF8FC41206012B2002A40
:1025E00011D0186850F00200186012B2012A08DBFE
:1025F000521E12B2002AFBD1186830F00200186097
:1026000001E000200200DFF8C4010068084203D1A5
:10261000521C12B2012AF6DA186830F00200186073
:10262000DFF8B4010160DFF8AC0100680843DFF8AF
:10263000A4412060DFF89C0100688843DFF89441E2
:102640002060100000B210BC704780B540B202009C
:1026500012B21021DFF88401FFF77AFF02BD80B5C6
:1026600040B2020012B25FF08071DFF87401FFF730
:102670006FFF02BD80B540B2020012B25FF0007180
:10268000DFF86001FFF764FF02BD80B540B20200D1
:1026900012B25FF08061DFF85001FFF759FF02BD11
:1026A00080B540B2020012B25FF00061DFF83C0179
:1026B000FFF74EFF02BD000010B4030012B212F18A
:1026C000030F01D17E2072E0DFF8FC00006850F4B7
:1026D0008060DFF8F440206040F201101860DFF8FD
:1026E000100100688843DFF80841206012B212F13F
:1026F000020F01D17E205AE0DFF8F800006808429E
:1027000002D17FF0010052E0DFF8EC000160DFF859
:10271000E00000680843DFF8D840206000BF00BF39
:1027200000BF00BF00BFDFF8CC000068084202D045
:102730007FF002003BE0DFF8B80000688843DFF874
:10274000B040206012B2002A11D0186850F0020088
:10275000186012B2012A08DB521E12B2002AFBD105
:10276000186830F00200186001E000200200DFF875
:1027700084000068084203D1521C12B2012AF6DA22
:10278000186830F002001860DFF870000160DFF8B0
:10279000600000680843DFF858402060DFF8500010
:1027A00000688843DFF848402060100000B210BC89
:1027B000704780B540B2020012B20121DFF840003C
:1027C000FFF77AFF02BD00003880044010F00F4090
:1027D00008F00F4014F00F4004F00F401090044038
:1027E0006090044064900440689004406C90044001
:1027F00054F00F4050F00F4048F00F4044F00F40AD
:1028000000A004402DE9F041010000240020002731
:10281000DFF8D802C9B250F82150DFF8D402C9B2AB
:1028200050F821605FF080085FF0FF3069688847EA
:102830000700B8F101083FB2002F04D55FFA88F80D
:10284000B8F1000FF0D15FFA88F8B8F1000F67D047
:102850007FF002006968884710F00F0017FB00F74F
:102860007FF002006968884700113FB297FBF0F7DC
:102870005FF080087F1C380040B26968884700B26A
:102880000628F7DA00B210F1010F00D17F1EB8F16F
:10289000010800B210F1010F04D15FFA88F8B8F115
:1028A000000FE7D15FFA88F8B8F1000F35D05FF07C
:1028B00080087F1E380040B26968884700B2062849
:1028C00002DA3FB2012FF4DA00B210F1010F00D1A9
:1028D0007F1CB8F1010800B210F1010F04D15FFABA
:1028E00088F8B8F1000FE4D15FFA88F8B8F1000F6A
:1028F00010D00024B6F900003FB2B84212D0B6F9A9
:1029000000003FB2C01B401C03280BD354F010043E
:10291000378007E054F0200404E054F0200401E084
:1029200054F020042000C0B2BDE8F0812DE9F04150
:1029300004000D0000266D48E4B250F8240007683A
:10294000EDB2012D1DD15FF0000815E067485FFA78
:1029500088F850F82800006887420BD100206449AD
:102960005FFA88F851F8281048804046C0B2FFF757
:1029700049FF064318F101085FFA88F8B8F1060F1D
:10298000E4DBEDB2082D04D12000C0B2FFF73AFF1E
:1029900006433000C0B2BDE8F08100002DE9F84FD9
:1029A0000024802500265FF0000B514AC0B252F887
:1029B00020704E4AC0B252F82080C9B2012901D11C
:1029C00001248EE0C9B2022975D11420494908803A
:1029D000494890F804907888002802D15FF07F0A77
:1029E0000BE098F908A008E05FF000090624EDB2BA
:1029F000002D02D106245FF000095FFA89F9B9F1D0
:102A0000000F46D0388840B2D8F804108847834673
:102A10000FFA8BFBBBF1010F1FDB524652B2B91C00
:102A2000584680B200F06AF8002801D06D1E08E018
:102A3000304800881BEB00002E490880B9F10109DD
:102A400080250FFA8BFBBBF5FE4FD0D9F6B2052ED1
:102A500001D2761CCBE70424C9E70FFA8BFBBBF14C
:102A6000000F0FD18025F6B2052E01D2761CBEE7ED
:102A70005FF00009B7F90000022801DA0424B6E784
:102A80000324B4E70FFA8BFB1BF1010FACD16D1ED1
:102A9000ADE7E4B2002C0BD17888002821D115488D
:102AA00000881549097990FBF1F040B2788018E070
:102AB0000020788015E0C9B2042901D1040010E09B
:102AC000C9B203290DD10821C0B2FFF72FFF0400BE
:102AD000A00601D5062404E0E00601D5022400E0AA
:102AE00000242000C0B2BDE8F28F00005048000072
:102AF0008081FF1FA081FF1F9086FF1F30B4062337
:102B00000C88001B00B28028A8BF7F2004DA6FF079
:102B10007E05A842B8BF28468242B8BF641C05DBC8
:102B2000524212B29042B4BF641E00230C80FFE7F1
:102B3000184630BC704700062DE9F0410024DFF84C
:102B4000C454DFF8C464DFF8C474DFF8C484E0B2AE
:102B5000FEF77BFC002005F8010B7F2006F8010B37
:102B60003F2007F8010B002028F8020B641CDFF857
:102B7000A40400788442EADB0021DFF89C04027898
:102B8000DFF898041318DFF89844FF200855491C13
:102B9000C9B213F8015C6D1CA942F7D30021DFF81C
:102BA0008434DFF88444002503F8010B04F8015B4A
:102BB000491C9142F8DB0021DFF87024DFF8703403
:102BC000DFF87044DFF87054DFF8706436780F4631
:102BD00002F8017B03F8017B04F8017B05F8017B17
:102BE000491CB142F4DB0021DFF85424DFF85434EF
:102BF000DFF85444DFF854542D780E4602F8010BE8
:102C000003F8016B04F8016B491CA942F6DBBDE82F
:102C1000F0812DE9F843DFF838040021018041807C
:102C20000821017164214171042181710021C17168
:102C30000F210172002141727F218172FF210173F6
:102C40000121C172FFF778FFDFF808040468DFF89C
:102C5000C8030778CFB3DFF80054DFF80064DFF86B
:102C60000084287800F0F001102916D10421306882
:102C700000F00AFAD8F800900C21484600F004FA57
:102C8000287889F80000D8F800008460FF2210211D
:102C9000204600F0FDF9103411E0202903D000F0A7
:102CA000F00030280BD1306800210170D8F8009076
:102CB0000721484600F0E8F9287889F8000008F173
:102CC0000408361D6D1C7F1ECBD1DFF89803016808
:102CD00008001CBF01208847BDE8F143FEF702BC95
:102CE00030B40022DFF868130B460C245D78AA1874
:102CF000D2B25B1C641EF9D1DFF818331B783BB1EC
:102D0000DFF8044314F8015BAA18D2B25B1EF9D1B4
:102D1000DFF838331B783BB1DFF8244314F8015B4C
:102D2000AA18D2B25B1EF9D1DFF83C33022811D1C8
:102D3000187890420FD0087840F004000870487866
:102D400000F07F004870DFF824030068010002D023
:102D500030BC00471A7030BC70472DE9F84F012491
:102D6000DFF8BC1200200090DFF8AC0290F800B051
:102D7000BBF1000F33D0DFF8AC52DFF8DC62DFF8D4
:102D80009C92DFF8EC824746DFF8A4A22878FF285F
:102D90001CBF401E28700098C210D2B212F80A3030
:102DA000234201D1287858B923EA040002F80A0026
:102DB000386828B130789DF8002058F822209047D4
:102DC00019F8010BDFF8581241186406240E009818
:102DD000401C00903F1D761C6D1C5845D6DBBDE89D
:102DE000F18F70B5DFF87C02046820001CBF022060
:102DF000A047DFF85C526878000638D5FEF789FBFB
:102E0000064616F0FE001FD0B00703D5287840F024
:102E100001002870700703D5287840F00200287060
:102E2000300707D5287840F008002870687800F04F
:102E30007F006870DFF834020068010018BF804727
:102E400020001CBF0120A047F00718D46878092192
:102E5000084206D000F0F600687020001CBF012078
:102E6000A047DFF810020068010018BF8047DFF8B4
:102E700008020068010018BF8047002070BD0120D3
:102E800070BD38B500240D2873D2A8B901F0070130
:102E90006F4A1078C30758BF01F0FE01830758BF7F
:102EA00001F0FD01430758BF01F0FB01000758BFC7
:102EB00001F0F70111708DE001281BD1644A5378AD
:102EC0001D0748BF41F00801DB0748BF41F0010181
:102ED00053790BB901F0DF01D3790BB901F0EF01A0
:102EE0005170674A1268002A74D0654A1268904788
:102EF00004466FE004280BD109B1212901D34424F1
:102F000068E05348017103205C490968884761E023
:102F1000052807D14E4A19B9507800F0DF005070EB
:102F2000517157E0062806D10029E8D02129E6D2C0
:102F3000474881714EE0072807D1454A19B95078B2
:102F400000F0EF005070D17144E0A0F10802D2B25D
:102F5000032A04D24A4A1268002A3BD0C5E70B284C
:102F600001D00C2836D1474A1268130032D090475E
:102F7000BEE7284A127802F10D0398420CD28A1E4D
:102F8000D2B27E2ABBD2204A821802F80D1C0D381C
:102F9000C0B2FEF71CFC1DE02C4B1B789D180D35B4
:102FA000A8420ED2801A264A801800F80D1C022072
:102FB000324909688847264A507840F00800507026
:102FC00008E002EB43010D31884201D2432401E0C5
:102FD000FCD042241E4A5078800705D5507800F076
:102FE000FD005070FFF715FE44B92448006828B171
:102FF0001C48016808001CBF01208847204632BDDC
:10300000000000002887FF1FF886FF1F0887FF1FAA
:10301000B886FF1F372B00008E300000F31300002E
:103020003887FF1F9387FF1F9487FF1F9587FF1F18
:103030009687FF1F9787FF1F9887FF1FF6300000B6
:103040009087FF1F9287FF1F9187FF1F8F3000001F
:103050009086FF1F684B0000F2130000604B0000D9
:10306000644B0000844B00009987FF1F984B0000C1
:103070006C4B0000704B0000884B0000944B00002C
:10308000904B00008C4B0000002200F005B80101BD
:1030900062F30F2262F31F42401810F0030308D0BE
:1030A000C91A1FD3DB0748BF00F8012D28BF20F83D
:1030B000022D130030B414461546103928BF20E9FC
:1030C0003C00FAD8490728BF20E90C0048BF40F867
:1030D000042D890028BF20F8022D48BF00F8012DDB
:1030E00030BC7047C91818BF00F8012DCB0728BFA6
:1030F00000F8012D7047010080B5FEF72BFEDFF8C8
:103100006003DFF8601308600020DFF85C130870CC
:103110000FF25910DFF8501348600FF25510DFF826
:10312000481388600FF2A510DFF83C13C8600FF257
:103130001D20DFF8341308610FF29520DFF8281303
:1031400048610020DFF8241308606420DFF81C13B6
:1031500088710120C54908710020C44948710020C8
:10316000C249C87101BD002100E0491C0200501C89
:103170001278002AF9D10800704780B5BA48BA49D8
:10318000097810EB8100406880474FF4FA7000F036
:1031900035FAF3E770B4002103E00022B44BCA54BF
:1031A000491CB1F5967FF8D3B14C002300E05B1CBD
:1031B000AE49097A8B4215D2AE491A5C11EB8201F5
:1031C00051F8805C002209E0032606FB0126765DAB
:1031D0002670641C491C0529F6D3521C032AE6D22A
:1031E0000021F8E770BC70472DE9F04104000D00A4
:1031F0001600EDB2042D01D3012034E0F6B2202EEA
:1032000001D302202FE0002C01D103202BE0370056
:1032100000E07F1CFFB2222F24DAA84607E04146D7
:10322000C9B23800C0B2FEF7D3FF18F101085FFA47
:1032300088F8EDB2681D8045EBD2FFB2F6B2B81B3C
:1032400005215FFA88F8EDB2B8EB050201FB00201A
:10325000005D0028E3D04146C9B23800C0B2FEF795
:1032600091FFE2E70020BDE8F08100007047000018
:10327000002004E07E49415C794A8154401CB0F54D
:10328000967FF7D37948007A0F2148437749086041
:103290007648007902280ED14FF4967003E00021A1
:1032A0006F4A8154401CB0F5BB7FF8D96F48006865
:1032B0004B306E49086000206C49C8716848694904
:1032C00008600220684908707047000030B5ABB054
:1032D000634866490968081862490968441AAA2CB3
:1032E00014D2604801686D462200280000F0CCF935
:1032F000D4F1AA025E4968462418200000F0C4F9FF
:10330000012201216846FFF76FFF05E0012201213C
:1033100054480068FFF768FF52480068401D514953
:103320000860504800684E49401A50490968884270
:1033300009D34B484B4908604C48C079012802D159
:103340000120494908702BB030BD000030B5ABB04A
:10335000434846490968081842490968441AAA2C92
:1033600014D2404801686D462200280000F08CF914
:10337000D4F1AA023E4968462418200000F084F9DE
:10338000012201216846FFF72FFF05E001220121FC
:1033900034480068FFF728FF32480068401D314973
:1033A0000860304800682E49401A30490968884250
:1033B0000CD32B482B4908602C48C079012805D133
:1033C00000202949087000202849C8712BB030BD61
:1033D00080B50020FEF72EFF01BD38B505000C00BA
:1033E0002800FFF7C0FE214908722048007A0B2808
:1033F00012D32800FFF7CEFE02201C4908711B489B
:103400008079E4B2844203D201201749087020E099
:1034100001201649C8711CE00120144908711348A5
:103420008079E4B2A04207D30020FEF703FF022117
:103430002800FEF7CAFD0CE00B480078032808D0EE
:103440002800FFF7A7FE01200849C871032006499C
:1034500008700120054948710448847131BD00009D
:103460007C83FF1F4887FF1F2086FF1FA086FF1F4A
:10347000F484FF1F0080FF1F70B500217D4C25687C
:103480000026016803E001262268526822600A7F54
:1034900023681B681B7F9A4203D322685268002A64
:1034A000F1D10100200000F02AF9012E00D12560A1
:1034B00070BD38B50400256808684068002803D14D
:1034C00006E0206840682060206840680028F8D145
:1034D000200000F014F96068032800D3256031BD96
:1034E0000020644908600020624948600020624969
:1034F00008600020604948600020604908600020A2
:103500005E4948607047F8B504000F001D00202098
:10351000FDF70EFE0600002E2CD0F76006983077DF
:10352000002070610020B0612800FDF701FE3061CD
:103530003069002806D0306910EB8500306030001B
:1035400000F06DF9746001203072300000F01CF959
:1035500001004848FFF7ADFF49480068002804D043
:10356000474800684068002804D142480068006865
:1035700043490860F1BD80B5002000F01DF84049C6
:1035800009684969491C3E4A126851613C49096809
:10359000496905290ED13A4909684968002909D0C5
:1035A0000020374909684861324800F0D0F8FFF739
:1035B00063FF0020C0B202BDF8B500200021012049
:1035C0002D4C25686668002703E021684968216062
:1035D0007F1CB7420FD2216809688A69521E8A612E
:1035E00089690029F1D1200000F0B1F82568FFF7C2
:1035F00043FF0020ECE72560C0B2F2BD38B50025DE
:1036000000221F49096800292DD01D4909688861D9
:10361000184800F09CF80100174C1748056802E0B4
:10362000206840682060206802681548006880694A
:103630009269904209D2200000F061F82068806809
:10364000002801D10C48056806E020684068002881
:10365000E6D1200000F06EF825600A48006850F0BE
:1036600080500849086031BD02480068006804497C
:1036700008607047D086FF1FD886FF1FE086FF1FB7
:103680004C87FF1F04ED00E062B38B0708D0521E89
:1036900011F8013B00F8013B00F024808B07F6D1C4
:1036A000830740F0208000BF103A07D330B4B1E860
:1036B0003810103AA0E83810F9D230BC530724BFB4
:1036C000B1E80810A0E8081044BF51F8043B40F8E6
:1036D000043BD20724BF31F8022B20F8022B44BF51
:1036E0000B7803707047083A07D3B1E80810083A1E
:1036F00040F8043B40F804CBF7D25307E4E74268B4
:10370000002A01D1016011E002684A6002689268F3
:103710008A6002689268002A02D00268926851604A
:103720000268916001604968026851604168491C03
:10373000416070474268002A01D1016003E00268DD
:10374000516002688A604168491C41607047416865
:10375000002901D1002115E001688A68002A02D001
:103760004A688B685A604A68002A02D08A684B68A7
:103770009A604A68026000228A6000224A604268B9
:10378000521E42600800704710B504000C20FDF77F
:10379000CFFC0460002141600021816010BD000069
:1037A00040B2002808D509012D4A40B210F00F00A0
:1037B000801800F8041C03E009012A4A40B2815431
:1037C000704780B5411EB1F1807F01D301200EE02A
:1037D000401E254908600F215FF0FF30FFF7E0FF32
:1037E000002022490860072021490860002002BD0E
:1037F000704780B51F48FFF7E4FF0F215FF0FF30EF
:10380000FFF7CEFF0F217FF00100FFF7C9FF01BDD9
:1038100080B572B600F042F862B601BD704701682B
:10382000091F01605FF08071026811600168091F63
:103830000160C168026811600168091F01600E49DA
:10384000026811600168143901600168091F016094
:103850007FF0020102681160016820390160704741
:1038600018ED00E000E400E014E000E018E000E003
:1038700010E000E0007701001D38000080B5FFF780
:10388000B7FFFFF72DFE642000904FF40073002275
:103890000FF255010020FFF736FE01BD80B5FFF79E
:1038A0006AFE002805D10E48006850F080500C498F
:1038B000086001BD10B582B00A4C08E0207C009081
:1038C000E368A26861682068FFF71DFE1434606831
:1038D0000028F3D1FFF78DFF00F034F813BD00008E
:1038E00004ED00E084460000FEE70000EFF30980ED
:1038F000BFF36F8F1C4B1A6820E9F04F106008B4BB
:103900004FF0280080F31188FFF7AEFE4FF0000063
:1039100080F3118808BC19680868B0E8F04F80F39C
:103920000988BFF36F8F70470F4B19680868B0E8BC
:10393000F04F80F30988BFF36F8F4FF0000080F3E2
:103940001188704709480068006880F3088862B6EB
:10395000BFF34F8FBFF36F8F00DFDFF814000168F4
:1039600041F47001016070474C87FF1F08ED00E0D3
:1039700088ED00E02DE9F04100F00F03C34A52F852
:103980002340C34A52F8235002092678B2EB161F8F
:1039900040F0E980012A40F0E680002662781206B5
:1039A00040F1E180B4460A78FF2A00F09680DFF803
:1039B000E4E213F80E700F22104205D003EB0E0262
:1039C00012F8012CBF1AFFB21CF80120120626D5EE
:1039D0002A78521E2A7094F905E052B2964503DB0C
:1039E000227902F07F022271227902F04202022A39
:1039F00015D146F00106E278D4F808E01CF8018001
:103A000002F80E80E278521C02F00F02E27094F885
:103A100002E0724503D1227942F0400222710CF19A
:103A200001025FFA82FC1CF80120FF2A01D0BC458C
:103A3000CADB4FF0000C1CF80120120637D42A789C
:103A4000521C2A701CF801E085F801E094F805E0AA
:103A50004FFA8EFE52B296450BDABEF1000F08D037
:103A6000227942F080022271D20620D546F001066A
:103A70001DE0227902F07F02227102F04102012A48
:103A800015D146F00106E278D4F808E01CF8018070
:103A900002F80E80E278521C02F00F02E27094F8F5
:103AA00002E0724503D1227942F0400222710CF10A
:103AB00001025FFA82FC1CF80120FF2A01D0BC45FC
:103AC000B9DB95F90010012924DB207900F005000D
:103AD000052802D17048E17919546F48195CA9BBD7
:103AE000217901F04401042930D195F90010012910
:103AF0002CDBE178A2686D788D54E178491C01F0E7
:103B00000F01E170A27891421CD1207940F0400071
:103B1000207119E00029E0D15F49FF225A546178F1
:103B2000890613D5D9105D4A8D5C012700F0070086
:103B300007FA00F028438854607800F01F005849C5
:103B4000585403E0A179195446F00106F0070AD54C
:103B50006078400607D5534850F82310080002D07B
:103B60005148185C8847BDE8F081F1B400209DF809
:103B700000301B09012B18BF152040F084809DF8F0
:103B8000003003F00F04414B53F82430C9B209B997
:103B9000132078E0012926D11F210A4208BF02F034
:103BA000DF0291065CBF3E496054510605D53D4990
:103BB00051F8241009B902F0BF02197903252942EE
:103BC00008BF02F07F02E110384C0D5D01269DF820
:103BD000007007F00707BE4017064CBF3543B543DA
:103BE0000D555A704FE0022906D1D2B2102A01D3E6
:103BF000142048E09A7046E00329C9D0042924D152
:103C000003210A420ED1597801F07F015970E11069
:103C1000264C0D5D01269DF8007007F00707BE4099
:103C2000B5430D55997909B902F0FB0219790C06D3
:103C30004CBF42F0800202F07F02490658BF02F0FA
:103C4000BF0202F0DF0119711DE0052904D1D2B2D3
:103C5000102ACDD25A7116E0072907D1D2B21AB96B
:103C6000197901F0FB011971DA710CE0062907D10D
:103C7000D2B21AB9197901F0FB0119719A7102E0F7
:103C8000082985D01220F2BC70470000644B000068
:103C9000604B0000F31300009387FF1F9587FF1F01
:103CA0009487FF1F5C4B0000F21300009787FF1FF3
:103CB00080B57B48006850F00070794908600421A5
:103CC000002000F0F5F81821002000F0F1F819218B
:103CD000002000F0EDF81A21002000F0E9F81B2187
:103CE000002000F0E5F80021012000F0E1F8FEF7E7
:103CF00090FF032204216B480068FFF736FFC022C3
:103D0000012168480068FFF730FF07210620FFF710
:103D1000B8F80A210420FFF7B4F8C8210720FFF7FC
:103D2000B0F840210520FFF7ACF80F210D20FFF778
:103D3000A8F80F210E20FFF7A4F816210F20FFF797
:103D4000A0F816211020FFF79CF80F211120FFF793
:103D500098F80F211220FFF794F8B0210120FFF707
:103D600090F801BD80B55048007810F0010000289F
:103D700006D14D480078C0F34000C0B2002807D0FB
:103D800000210020FFF77DF8FF211320FFF779F8CD
:103D900001BD704737E010F00F00C0B2002805D118
:103DA0004249097811F0FE01404A1170C0B2012861
:103DB00005D13E49097811F0FD013C4A1170C0B2AD
:103DC000022805D13949097811F0FB01374A1170F1
:103DD000C0B2042805D13549097811F0EF01334A02
:103DE0001170C0B2032805D13049097811F0F701EC
:103DF0002E4A1170C0B2052805D12C48007810F069
:103E0000DF002A490870274880782649C978884207
:103E100044D02448806823498978085C21498978FE
:103E2000491C11F00F011F4A91700106B3D4C0B2B2
:103E3000002805D11D49097851F001011B4A117074
:103E4000C0B2012805D11949097851F00201174A79
:103E50001170C0B2022805D11449097851F004014B
:103E6000124A1170C0B2042805D11049097851F0E6
:103E700010010E4A1170C0B2032805D10B49097810
:103E800051F00801094A1170C0B20528BBD107489A
:103E9000007850F0200005490870B4E77047000032
:103EA0003C800440AC86FF1F9086FF1F8C87FF1F5D
:103EB000194A126852F47852174B1A60C0B200289F
:103EC00006D0022812D00AD304281DD015D322E030
:103ED0004FF48070114AC9B242F821001BE04FF440
:103EE00080700F4AC9B242F8210014E04FF480708C
:103EF0000C4AC9B242F821000DE04FF480700A4A22
:103F0000C9B242F8210006E04FF48070074AC9B2F6
:103F100042F82100FFE770473880044000900440D9
:103F200000A0044000B0044000C0044000D00440A1
:103F30006420724908700FF235007049C1F894018D
:103F40000FF2E1006D4948600FF239006B4988605B
:103F50000FF269106949C8600FF271106749086172
:103F60000FF26510654948617047000080B56448EC
:103F7000007830308DF8000001216846FFF72DFAF7
:103F800001BD000000B585B003A800F08FF99DF8D1
:103F90000F000A2190FBF1F030308DF800009DF801
:103FA0000F000A2190FBF1F201FB120030308DF876
:103FB00001009DF80E000A2190FBF1F030308DF8E1
:103FC00003009DF80E000A2190FBF1F201FB1200A4
:103FD00030308DF80400BDF80C000A2190FBF1F0A0
:103FE0000A2190FBF1F201FB120030308DF806003F
:103FF000BDF80C000A2190FBF1F201FB12003030F9
:104000008DF807002E208DF805009DF805008DF82D
:10401000020000208DF8080005216846FFF7DDF951
:1040200005B000BD00B585B0684600F035F99DF8D3
:1040300000000A2190FBF1F030308DF804009DF86B
:1040400000000A2190FBF1F201FB120030308DF8E4
:1040500005009DF801000A2190FBF1F030308DF849
:1040600007009DF801000A2190FBF1F201FB12000C
:1040700030308DF808009DF802000A2190FBF1F025
:1040800030308DF80A009DF802000A2190FBF1F211
:1040900001FB120030308DF80B003A208DF809003A
:1040A0009DF809008DF8060000208DF80C00052110
:1040B00001A8FFF792F905B000BD000080B5052109
:1040C0001048FFF78AF901BD7047000070470B48A0
:1040D0000078002804D009480078401E074908707D
:1040E000704780B505480549097810EB81004068A4
:1040F00080473220FFF782FAF4E700003886FF1F7E
:104100008F87FF1FE84A00001C206F49C8700120FC
:104110006D4988704FF4FC606B49088006206A493D
:1041200008711720694908703B206849487037209A
:1041300066498870002066490870704780B56548F8
:104140000078401C6349087062480078022806D154
:1041500000F00AF800F030F800205E4908704FF4D3
:10416000FA70FFF74BFAEAE758488078401C574945
:104170008870564880783C281DD1002053498870AB
:1041800052484078401C51494870504840783C287B
:1041900011D100204D4948704C480078401C4B49D3
:1041A00008704A480078182805D10020474908704F
:1041B00001204749087070470020434909880422BC
:1041C000B1FBF2F303FB1213002B08D13E4909881F
:1041D0006422B1FBF2F302FB131100291BD13A490F
:1041E00009880422B1FBF2F303FB1213002B13D155
:1041F000354909886422B1FBF2F302FB131100294F
:104200000AD1314909884FF4C872B1FBF2F302FBBD
:104210001311002900D101202D49097801293AD133
:1042200000212B4A117028490979491C264A11712D
:1042300025490979072902DB0021234A1171224906
:10424000C978491C204AD17023491F4A9278515C91
:104250001D4AD27891421ED21B498978012906D184
:10426000C0B2002803D01848C0781E2807D3012008
:104270001549C87014488078401C1349887012484A
:1042800080780C2807DB00200F4988700E480088D2
:10429000401C0D49088070470C49097801700B4992
:1042A0004978417009498978817070470649C97811
:1042B000C1700549897881700349098801800249E4
:1042C0000979017170470000E886FF1F5087FF1FC2
:1042D0008D87FF1F8E87FF1FF84A000080B5FFF70C
:1042E000E7FC002051494870504840784F49087019
:1042F00000204F4948704E4840784D4908700020D2
:104300004C4948704B4840784A49087000204A4957
:10431000487049484078484908700020474948702B
:10432000464840784549087000204549487044484F
:1043300040784349087001BD10B400224A780A70E1
:1043400000224A703F4A1278012383401A4201D06A
:10435000012200E000223C4BC35CD2B29A4204D05E
:1043600000233A4C44F8203018E0384B53F8203002
:104370005B1D364C44F82030D2B2002A0ED0334BAD
:1043800053F820303C2B01D301234B702F4B53F8B3
:104390002030B3F5FA7F01D302234B702A4BC2546D
:1043A00048780A78904202D10020887001E001200C
:1043B000887010BC704780B508E01D4880780128DF
:1043C00001D1FFF784FE0520FFF718F9FEF709FD7C
:1043D00016490020FFF7B0FF15490120FFF7ACFF99
:1043E00014490220FFF7A8FF13490320FFF7A4FF99
:1043F00012490420FFF7A0FF11490520FFF79CFF99
:104400000A4880780128D8D1084840780128D4D1BA
:104410000F480078401C0E4908700D4800780A28A3
:10442000D1D300200A490870CDE700005487FF1F50
:104430005887FF1F5C87FF1F6087FF1F6487FF1F70
:104440006887FF1F8C87FF1FF086FF1F5086FF1FA6
:104450008F87FF1F816807E0026811685368891819
:104460005B18C36008320260C2689142F4D04A1CF3
:104470008260087870472DE9FF4D00F10801009136
:1044800000270268520801EBC2010191B8460021E1
:10449000029103910168490800EBC101406800F0F6
:1044A000010501F10804400804EBC00632E068464B
:1044B000FFF7D0FF4FFA80FA0AE000980168081869
:1044C00000990290496808180390009808300090FD
:1044D000029803998842F0D010F801BB029047453A
:1044E0000CD1B44208BFFCF781FF276805B14F44E7
:1044F000606800EB070808344745F2D0BAF1000FB6
:1045000007F801BB0ED51AF1010AE8D10298039908
:104510008842CCD1009801998842C8D1304604B075
:10452000BDE8F08DBAF1010AD2D5EFE703202249A8
:1045300008701C20214908709020214908702148EA
:1045400000788007FBD51F480078C006FBD41D48C3
:104550000078C0F38100C0B20228F8D100201A49C7
:104560000870602019490870164800788006FBD54D
:10457000144800784006FBD51548164908601048D5
:10458000007810F03F000E4908700E480078C0F324
:104590008100C0B20328F8D10F48006840F4E00061
:1045A00050F002000C4908600C48006850F480206C
:1045B0000A490860704700BF0050064001400640AD
:1045C00000400640064006400440064005400640C4
:1045D00000001301448004404880044034800440BB
:1045E000F8B504000025002604E000206946F6B274
:1045F0007054761CF6B2002EF7D000261DE020493C
:10460000C0B251F8201009688F4211D16946C0B27A
:10461000C208515C0122C0B20823B0FBF3FC0CFBC2
:10462000130C12FA0CF211436A46C0B2C308995433
:10463000401CC0B20628E2DB761CF6B2062E1BDA5E
:104640006846F6B2F108085C0121F6B20822B6FB12
:10465000F2F303FB126399400842EDD10848F6B229
:1046600050F8260007682100C9B23000C0B23A688D
:10467000904705433000DCE72800C0B2F2BD0000DF
:1046800050480000010000007B31000000000000E5
:10469000000200000A000000020000003D4100008E
:1046A00000000000000200000A00000003000000FB
:1046B0005D47000000000000000200000A0000004A
:1046C00004000000E34000000000000000020000C1
:1046D0000A00000005000000B743000000000000D1
:1046E000000200000A0000000000000000000000BE
:1046F00000000000000000000000000019E050F879
:10470000041BCB0744BFA9F101035918121F002352
:10471000042A41F8043BF9D25FEA827C0B4604D5B7
:104720004FF0000CA1F800C09B1CD10744BF002132
:10473000197050F8042B002AE1D170470548006831
:1047400050F40070034908604FF4A07002490860FB
:1047500070470000388004402890044080B5322023
:10476000FEF74CFFFBE700001018000810180008C7
:104770001018000810180008101800081018000879
:104780001018000810180008101800081000000089
:1047900010B5074979441831064C7C44163404E0BE
:1047A0000A68081D511888470146A142F8D110BD7A
:1047B0002C0000005400000080B5FFF7B7FEFEF7A4
:1047C0009BFCFFF7A1FCFFF789FDFFF7B7FFFFF7A1
:1047D000AFFBFFF753F8FFF76DF8FEE721FFFFFF90
:1047E000F8050000A481FF1F000000008BFCFFFF04
:1047F0000200000002000000E8B9FFFFCA0000004C
:104800000080FF1FA301000000F00BF8002801D07A
:10481000FFF7BEFF0020C046C046FFF7CDFF00F007
:1048200002F80120704700F001B800000746384642
:10483000FCF7F6FDFBE700009D2900009D29000024
:104840009D2900009D2900009D2900009D29000050
:10485000044B0000104B00001C4B0000284B0000D4
:10486000344B0000404B0000010101010001010038
:10487000010100010101010000010001010000012E
:10488000000001000101010001010100000101011E
:10489000010100000101010001010100000100010E
:1048A00001000001010101000100010100010101FD
:1048B00001000001000001000101010100000101EF
:1048C00001000001010101000101010100000101DD
:1048D00001010001010101000101010000010000CE
:1048E00001000001000001000101010100010101BE
:1048F00001010001010101000101010100010101AB
:10490000010000010000010000010001000101019F
:10491000010100010100010001010001000101018C
:10492000010100010101000001010101000001007D
:10493000000100000101010001010001000101006E
:10494000010100010101000001010101000001015C
:10495000010100000101010001010101000001014C
:104960000001000001000000000101010000010140
:10497000010100010001010001000101000101012C
:10498000010100010100010000010000010000011F
:104990000000010000010000000001000001000013
:1049A00001010001010101000100010101000100FC
:1049B00000010100010001000100000100000100F0
:1049C00000010000010101000100010101010100DD
:1049D00001010001010001000100010100010101CC
:1049E00001010001010001000001000100010100BE
:1049F00001010001000100000101010100010101AC
:104A0000010100000100000000010001000101009F
:104A1000010100010001010001010001000101018B
:104A2000000101000100010000010101000001017D
:104A3000010000010101000001010100010000016D
:104A4000000001000001000001000101000101005F
:104A5000010100010101010001000101000101004B
:104A6000010100010001000001000101000101003D
:104A7000010101010100010001000101000100012B
:104A8000000100010100010001000101000100011D
:104A9000000001000001000001010100000100010F
:104AA00000010000010101000001000001000001FF
:104AB00000000000000100000000000000000000F5
:104AC00000000000000100000000000001000000E4
:104AD00000000100000000000000000000000000D5
:104AE0000000000000000000313233343536373822
:104AF00039383736353400001F1C1F1E1F1E1F1F7C
:104B00001E1F1E1F584B0000B327000004000000AA
:104B1000584B00004B26000004000000584B0000DA
:104B20005F26000004000000584B000075260000BE
:104B300004000000584B00008B2600000400000019
:104B4000584B0000A126000004000000C046C046EB
:104B5000C046C046FFF758FE2D290000953D0000D5
:104B60008487FF1FAC86FF1F8086FF1F75390000FA
:104B70005B2D0000431B0000371B0000DF17000007
:104B800000000000E12C0000000000000000000018
:104B900000000000E1450000653D0000933D00007D
:064BA000FFF7D4BFFEE7A1
:0400000500004B4D5F
:00000001FF
